:020000040800F2
:1000000000000820619A00082D9900083199000825
:1000100035990008399900083D9900080000000052
:1000200000000000000000000000000041990008EE
:100030004599000800000000499900084D99000802
:10004000B19A0008B19A0008B19A0008B19A000864
:10005000B19A0008B19A00085D990008B19A0008A9
:10006000B19A0008B19A0008B19A0008B19A000844
:10007000B19A0008B19A0008B19A0008B19A000834
:1000800065990008719900087D990008B19A0008E7
:10009000B19A0008B19A0008B19A0008B19A000814
:1000A000B19A0008B19A0008B19A0008B19A000804
:1000B000B19A0008B19A0008B19A0008B19A0008F4
:1000C000B19A0008B19A0008B19A0008B19A0008E4
:1000D000B19A0008B19A0008A1990008AD990008EA
:1000E000B19A0008B19A0008B19A0008B19A0008C4
:1000F000B19A0008B19A0008B19A0008B19A0008B4
:10010000B19A0008B19A0008B9990008B19A00089C
:10011000B19A0008B19A0008C5990008E199000851
:10012000ED990008F9990008059A0008B19A0008AD
:10013000B19A0008B19A0008B19A0008B19A000873
:10014000B19A0008B19A0008B19A0008B19A000863
:10015000B19A0008B19A0008B19A0008B19A000853
:10016000B19A0008B19A0008B19A0008B19A000843
:10017000B19A0008B19A0008B19A0008B19A000833
:10018000B19A0008B19A0008B19A0008B19A000823
:10019000B19A0008B19A0008B19A0008B19A000813
:1001A000B19A0008B19A0008B19A0008B19A000803
:1001B000B19A0008B19A0008B19A0008B19A0008F3
:1001C000B19A0008B19A000800000000B19A000836
:1001D000B19A0008B19A0008B19A0008B19A0008D3
:1001E000B19A0008B19A0008B19A0008B19A0008C3
:0801F000B19A0008B19A000861
:1002000010B5054C237833B9044B13B10448AFF350
:1002100000800123237010BD7C000020000000003E
:1002200068CC000808B5034B1BB103490348AFF382
:10023000008008BD000000008000002068CC00089D
:1002400053B94AB9002908BF00281CBF4FF0FF313D
:100250004FF0FF3000F072B9ADF1080C6DE904CE3B
:1002600000F006F8DDF804E0DDE9022304B0704791
:100270002DE9F047089E04468846002B4BD18A4260
:10028000154667D9B2FA82F24AB1C2F1200701FAE3
:1002900002F320FA07F7954047EA030894404FEA33
:1002A000154E230CB8FBFEF71FFA85FC0EFB1788D2
:1002B00043EA084307FB0CF1994209D9EB1807F10F
:1002C000FF3080F01B81994240F21881023F2B449D
:1002D0005B1AA4B2B3FBFEF00EFB103344EA0344F6
:1002E00000FB0CFCA44509D92C1900F1FF3380F068
:1002F0000781A44540F2048102382C4440EA0740BB
:10030000A4EB0C0400271EB1D4400023C6E900432F
:100310003946BDE8F0878B4209D9002E00F0EB800A
:100320000027C6E9000138463946BDE8F087B3FA30
:1003300083F7002F47D18B4202D3824200F2FA802A
:10034000841A61EB030301209846002EE0D0C6E931
:100350000048DDE702B9FFDEB2FA82F2002A40F07F
:100360008F80491B4FEA154E1FFA85F80127B1FB14
:10037000FEFC230C0EFB1C1143EA014308FB0CF1AD
:10038000994207D9EB180CF1FF3002D2994200F2E2
:10039000CD808446591AA3B2B1FBFEF00EFB1014B7
:1003A00043EA044408FB00F8A04507D92C1900F1E2
:1003B000FF3302D2A04500F2B6801846A4EB080431
:1003C00040EA0C409FE7C7F1200CBB4022FA0CFE2C
:1003D0004EEA030E01FA07F420FA0CF521FA0CF3A9
:1003E0004FEA1E482543B3FBF8F92C0C08FB1933E0
:1003F0001FFA8EFA44EA034309FB0AF49C4202FA0C
:1004000007F200FA07F10BD91EEB030309F1FF30E5
:1004100080F087809C4240F28480A9F102097344F5
:100420001B1BADB2B3FBF8F008FB103345EA0344E5
:1004300000FB0AFAA24508D91EEB040400F1FF33C1
:100440006BD2A24569D90238744440EA0940A0FB46
:100450000289A4EB0A044C45C2464B4654D351D002
:10046000002E69D0B1EB0A0564EB030404FA0CFC1E
:10047000FD40FC404CEA0505C6E90054002747E76B
:10048000C2F1200320FA03F7954001FA02F021FAA5
:1004900003F34FEA154E3843010CB3FBFEF71FFA86
:1004A00085F80EFB173341EA034107FB08F38B4243
:1004B00004FA02F407D9691807F1FF3C2FD28B42E6
:1004C0002DD9023F2944CB1A81B2B3FBFEF00EFBBB
:1004D000103341EA034100FB08F38B4207D9691846
:1004E00000F1FF3C17D28B4215D902382944C91AB2
:1004F00040EA07473BE73746304609E70746E7E665
:100500001846FBE64145ABD2B8EB020A69EB0E0296
:1005100001381346A4E76046E9E7184695E76746C1
:10052000D1E781467CE702382C4447E7ACF1020C66
:100530002B442FE7384608E73746E9E6704700BF07
:10054000034613F8012B002AFBD1181A0138704713
:1005500001F0FF01102A2BDB10F0070F08D010F874
:10056000013B013A8B422DD010F0070F42B3F6D178
:10057000F0B441EA012141EA014122F007047FF091
:1005800000070023F0E80256083C85EA010586EAE8
:10059000010685FA47F5A3FA87F586FA47F6A5FA24
:1005A00087F68EB9EED1F0BC01F0FF0102F0070230
:1005B00032B110F8013B013A83EA010313B1F8D1DB
:1005C0000020704701387047002D06BF35460338BC
:1005D000073815F0010F07D1013015F4807F02BFF5
:1005E000013015F4C03F0130F0BC0138704700BF46
:1005F00038B50D4C4FF47A730C49054622780868DB
:10060000B3FBF2F3B0FBF3F000F066FB08B90F2D7B
:1006100001D9012038BD002229464FF0FF3000F0FB
:1006200019FB6560002038BD00000020100000208C
:1006300008B5032000F0FAFA0020FFF7D9FF08F010
:100640006BFD002008BD00BF034A044B11681B78F6
:100650000B441360704700BFE80200200000002038
:10066000014B1868704700BFE802002038B5044607
:10067000FFF7F6FF0546631C02D0044B1B781C44B1
:10068000FFF7EEFF401BA042FAD338BD0000002068
:10069000002800F09180F8B5036C0446002B00F0B0
:1006A0008180236CDB0604D50023012084F83C30D4
:1006B000F8BD236C4D4A4E491A4023684D4D42F017
:1006C000020222644A6822F440324A604A68606842
:1006D00002434A605A68216922F48072D4F808C043
:1006E000E7685A605868A66A40EA0120AE4258603E
:1006F000586820F040705860596841EA0C01596010
:10070000996821F4006199609A6842EA07029A6048
:1007100054D09968E06A21F0706199609A68164334
:100720009E60996821F0405199609A6802439A60EE
:100730009968A56921F00201206A99609A6842EAE5
:1007400045029A60002842D15A6822F400625A6039
:10075000D86A0026E56920F47000D4F830C06A1E1B
:100760006769D8623046DD6A45EA0255DD629D68F8
:1007700025F400759D60996841EA4C21996099685B
:1007800021F4806199609A6842EA87229A606664DF
:10079000236C23F0030343F001032364002384F854
:1007A0003C30F8BD436480F83C3008F0FDFC236C1D
:1007B000DB063FF579AF7CE7012070479A6822F0AD
:1007C00070629A609A6822F040529A60B0E7586866
:1007D000626A40F40060511E58605A6822F4604218
:1007E0005A605A6842EA41325A60B1E7FDEEFFFFB3
:1007F000002301400100000F90F83C30F0B5012BC0
:1008000083B04FF00004019469D005680124AB68FF
:1008100080F83C40DE0714D4324B334E1C68AB6882
:10082000A6FB046443F00103A40CAB6004EB440496
:100830000194019B2BB1019C013C0194019C002C73
:10084000F9D1AB68DC073BD5036C284C1C4044F461
:10085000807404646B685B0505D5036C23F4405316
:1008600043F480530364036C13F4805335D0436C1A
:1008700023F00603436404460027806B13461C4E96
:100880000A4684F83C706FF02201C663194F1A4E75
:100890000764C664296005F14C016E6846F0806605
:1008A0006E60AE6846F48076AE6000F035FC134BA7
:1008B0005B6813F01F0F236805D0114A934202D0E2
:1008C000002003B0F0BD986810F04050F8D19A684D
:1008D00042F080429A6003B0F0BD4364CBE702204F
:1008E00003B0F0BD1000002083DE1B43FEF8FFFFC5
:1008F0000509000865090008A90A0008002301404D
:1009000000200140836B1A6C12F0500F02D09B6BD9
:10091000DB6C18471A6C196842F4007210B51A643F
:100920008A6812F0405F17D19A69AAB9CA6A12F4AC
:10093000700F02D08A6850050ED44A6822F0200257
:100940004A601A6C22F480721A641A6CD20403D4BE
:100950001A6C42F001021A64184607F03BFA10BD07
:10096000704700BF08B5806BFFF7FAFF08BD00BFF6
:10097000704700BF704700BF38B5036804461A6867
:100980005968900713D58A0611D5226CD50603D471
:10099000226C42F4007222649A6812F0405F58D0D0
:1009A000204607F017FA23686FF012021A601A68DF
:1009B0005968520713D50D0611D5226CD00603D401
:1009C000226C42F4005222649A6812F4401F22D032
:1009D000204600F029F923686FF00C021A601968AC
:1009E0005A68500604D5CA0702D51A68D5074AD4F2
:1009F0001A68596890060DD54A010BD5626C6FF0E4
:100A00002005204642F0020262641D60FFF7B2FF3B
:100A100023681D6038BD9A6B12F4401F3FD15A689D
:100A20005205D5D49A6812F0405FD1D1A269002A4C
:100A3000CED15A6822F080025A60236C23F480538E
:100A40002364236CDD05C3D4236C43F001032364CA
:100A5000BEE7A269002AA3D1DA6A12F4700F02D0AD
:100A60009A6850059CD45A6822F020025A60236C80
:100A700023F480732364236CD90491D4236C43F052
:100A8000010323648CE7236C204643F48033236402
:100A9000FFF76EFF23686FF001021A60A8E79A68FB
:100AA000510595D4BBE700BF08B54022836B1A649B
:100AB00018465A6C42F004025A64FFF75BFF08BD07
:100AC00090F83C300022F0B5012B83B0019200F089
:100AD0009A800D6801220368092D80F83C20AFB28E
:100AE0008A6828D805EB45064FF0070C1C690CFAFC
:100AF00006FC02FA06F624EA0C041C611A69164385
:100B00001E614E68062E06EB86022DD8053A1F247C
:100B1000596B944007FA02F221EA04015963596BB8
:100B20000A435A633C4A934230D0002380F83C3059
:100B3000184603B0F0BD07EB47064FF0070CDC6822
:100B40001E3EDFF8D8E00CFA06FC754524EA0C04DA
:100B5000DC605BD002FA06F6DA681643DE604E68A7
:100B6000062E06EB8602D1D90C2E37D8A2F123042B
:100B70001F26196BA64007FA04F221EA0601196341
:100B80001C6B1443244A93421C63CED1122D33D0E4
:100B9000224B9D4201D0112DC7D1214A1F495368D4
:100BA0008D4243F400035360BFD102F146721D4BE6
:100BB00002F52E321B6802F28332A2FB03239B0C48
:100BC00003EB83035B000193019B002BADD0019BE2
:100BD000013B0193019B002BF9D1A6E7A2F1410152
:100BE0001F26DC6A8E4007FA01F224EA0604DC6262
:100BF000D96A0A43DA6295E7D2F8043343F48003F2
:100C0000C2F8043391E7022003B0F0BDDE6846EA83
:100C10000266DE6075E700BF002001401200001090
:100C20000023014010000020704700BF0749000268
:100C3000074BCA6800F4E06010B44FF6FF0422408E
:100C40005DF8044B13431843C860704700ED00E0A3
:100C50000000FA05174BDB68C3F3022330B4C3F17D
:100C600007051C1D042D28BF0425062C18D9033B9D
:100C70004FF0FF349C4022EA04044FF0FF3200287A
:100C800002FA05F221EA020101FA03F242EA040241
:100C90004FEA0212D2B206DB074B1A5430BC70473F
:100CA00000242346E9E700F00F00044B1A5430BC3F
:100CB000704700BF00ED00E000E400E014ED00E04C
:100CC00000F01F010123034A40098B4042F8203005
:100CD000704700BF00E100E00138B0F1807F0DD225
:100CE000074B0022072130B4F025064C586010460F
:100CF00084F823509A60196030BC70470120704717
:100D000010E000E000ED00E0044A042813680CBF86
:100D100043F0040323F004031360704710E000E085
:100D2000704700BF08B5FFF7FBFF08BD00283CD0A7
:100D3000437F70B503F0FF020446FBB10222237922
:100D400062771BBB23681A4A5A619A6822F018021C
:100D50009A60627922BB4FF0FF321A6199680125CF
:100D60006269002021F06001A669114399609A68C8
:100D700022F0800232439A60657770BD027708F0F6
:100D8000D9FA022223796277002BDBD0E268204671
:100D9000A16800F00FF830B962792368002ADAD030
:100DA00022691A61DAE7012070BD0120704700BF97
:100DB000B71DC10410B41F2302E013F1FF3314D395
:100DC00021FA03F4E407F8D5102A1ED0182A16D009
:100DD000082A17D0046800206161A36823F0180373
:100DE0001A43A2605DF8044B7047102A03D0182AFA
:100DF00001D0082AEED101205DF8044B7047062B84
:100E0000E8D9F8E70F2BE5D9F5E7072BE2D9F2E7A8
:100E1000E8B138B590F83D30044603F0FF028BB1DD
:100E200061680023A26802200A4D0A43012184F868
:100E30003D0018462A60A38584F83110E38584F8C4
:100E40003D1038BD80F83C2008F08AFAE8E7012020
:100E5000704700BF0000065088B1037910B503F059
:100E6000FF0204463BB100230221012221711846F2
:100E70002361227110BD427108F088FAF3E7012066
:100E8000704700BF4279012A2BD00346022030B4BC
:100E90001A680124187104FA01F015685C7128437E
:100EA0001060106891B14003116808D501F4601119
:100EB000B1F5601F03D1516841F002015160002279
:100EC0000121104619715A7130BC704745071168ED
:100ED000F5D501F038013829F1D15168214351602D
:100EE000EDE70220704700BF0246002030B4012425
:100EF000156804FA01F12B6823EA010129601471D5
:100F000030BC7047704700BF03685A6B910410B53E
:100F1000044615D45A6B920000D410BD04224FF041
:100F2000005120462271226942F002022261596377
:100F30001A6822F08052BDE810401A6000F04EB8E6
:100F400004224FF400510271026942F00102026171
:100F500059631A6822F480521A60FFF7D3FF23689E
:100F6000D8E700BF4379012B1DD070B4D1E900311F
:100F70000468022640F6FE750B430671C02105FA8F
:100F800002F625689340914025EA060501262B4389
:100F900000252360226822EA010222600671457161
:100FA000284670BC704702231846704710B400688A
:100FB00083B000240194019051B1019914310A4485
:100FC0000192019A0020136003B05DF8044B704752
:100FD000019908310A440192F3E700BF704700BF4E
:100FE000F8B50446FFF73CFB002C53D002222368DF
:100FF0000021054684F835201A6884F8341022F060
:1010000001021A6005E0FFF72BFB401B05283AD8C8
:1010100023681A68D107F6D4D4E90120E1680243B5
:101020001F68D4E904050A430243206AD4E9066133
:101030002A43354D32433D400A43616A0243042945
:1010400042EA050228D01A605A6922F007021143C9
:10105000DAB22E4D5961103A2D492E48A5FB0252A5
:101060001940012513090022C05C032B4FF03F03F8
:1010700088BF0431E06583401046A1658B606265DE
:1010800084F83550F8BD032320221846626584F8A1
:101090003530F8BD0120F8BDD4E90B51A76A45EA07
:1010A000010047F0040102431A605A6922F0070266
:1010B0001143002DCCD07EB1B6F5005F16D0022FC3
:1010C00003D9032FC4D1EA01C2D501234022184617
:1010D000626584F83530F8BD012F03D0F3D3022FB9
:1010E000B6D1F0E7B5F1C07FB2D1EEE7032FAFD8AC
:1010F00001A252F827F000BFCB100008C71000086B
:10110000CB100008E51000083F8010E0ABAAAAAAA7
:1011100000FCFFFF80CC0008F0B490F83440012CB4
:1011200038D0012590F83540866DAC4280F83450B7
:1011300029D104680227002580F835704565876845
:101140002568402F25F480252560636026D0A160A6
:10115000E260C16D3F23026C8B40B360236843F0B3
:1011600016032360636943F0800363611AB1236847
:1011700043F0080323602268002342F0010218466E
:101180002260F0BC70470022022380F83420184609
:10119000F0BC70470223F0BC18467047A260E160C3
:1011A000D7E700BF90F835200346022A03D08022FB
:1011B00001205A65704702680521002083F8351028
:1011C000136823F001031360704700BFF0B50446B5
:1011D00083B000200822664901900E68D4E9167396
:1011E0009A403D682A4203D021680868400759D4D4
:1011F00001229A402A4203D021684969080674D422
:1012000004229A402A4203D021680968890766D4DB
:1012100010229A402A4203D02168086800074BD464
:1012200020229A402A4214D021680868C00610D5AE
:10123000BA6094F83520052A63D00B6813F4802F28
:101240000B687ED0190340F18980E36B0BB1204617
:101250009847636D23B3636DDA071AD522680521B9
:10126000444B84F83510A3FB0636136823F00103C2
:10127000B60A136002E01368DB0704D5019B013353
:10128000B3420193F7D90022012384F8342084F873
:101290003530E36C23B1204603B0BDE8F040184779
:1012A00003B0F0BD086820F004000860BA60626D09
:1012B00042F0010262659BE7BA600A6812F4802F6F
:1012C0000A6818D1D20503D40A6822F008020A601D
:1012D000226C002AA4D020469047E36DA0E7BA60B4
:1012E000626D42F00402626592E7BA60626D42F09C
:1012F0000202626584E71103EAD5A26C002AEAD1F2
:101300008EE70A68206C22F016020A604A6922F011
:1013100080024A6138B30A6822F008020A603F225C
:101320000020012102FA03F3226DBB6084F834002F
:1013300084F83510002AB3D0204603B0BDE8F04051
:10134000104713F4807380D10A68012022F0100244
:101350000A6084F8343084F8350076E7636C002B3B
:101360007FF475AF75E7A26C002AD4D1D7E700BF30
:1013700010000020B5814E1B2DE9F04FDFF82CC284
:1013800083B08E460025DFF82892D1F8008003E074
:101390000135102D00F0B6800123AB4008EA0301AF
:1013A0008B42F5D1DEF8044024F01007022F40F004
:1013B000AC80EF0805F0070A4FF00F0BDEF81020A5
:1013C00000EB87074FEA8A0A3E6A0BFA0AFB02FA29
:1013D0000AF24FEA450A26EA0B064FF0030B3243A6
:1013E0000BFA0AFB04F003063A626FEA0B02076885
:1013F00006FA0AF617403E4306608668C4F30017F3
:1014000006EA020BDEF80C60AF4006FA0AF646EA7E
:101410000B068660466826EA03031F434760C668DA
:10142000E700DEF8083002EA060203FA0AF343EAAC
:101430000203C360ACD5D9F8446025F0030705F07A
:1014400003030F2246F4804607F180479B00C9F84A
:10145000446007F59C37D9F8446002FA03FA06F4B1
:1014600080460196484E019AB042BA6822EA0A02C2
:1014700020D006F58066B0425ED0444EB04260D0C7
:10148000434EB04262D0434EB04264D0424EB0426E
:101490006BD0424EB0426DD0414EB04260D0414E12
:1014A000B0426CD0404EB0420CBF09260A2606FA64
:1014B00003F31A43BA60E603DCF800306FEA010276
:1014C00005F1010554BF13400B43A703CCF80030CE
:1014D000DCF8043054BF13400B43E602CCF8043070
:1014E000DCF8083054BF13400B43A402CCF808309A
:1014F000DCF80C3054BF13400B43102DCCF80C30EB
:101500007FF44AAF03B0BDE8F08F4FEA450A0322EB
:10151000D0F800B0013F04EA020602FA0AF2012FF5
:101520006FEA020206FA0AF602EA0B0B46EA0B061B
:1015300006603FF674AF60E7012606FA03F31A432C
:10154000B8E7022606FA03F31A43B3E7032606FABE
:1015500003F31A43AEE7042606FA03F31A43A9E796
:10156000072606FA03F31A43A4E7052606FA03F34F
:101570001A439FE7062606FA03F31A439AE708265A
:1015800006FA03F31A4395E7000002400008024000
:10159000000C0240001002400014024000180240FB
:1015A000001C02400020024000240240003C014098
:1015B0000038024002B9090481617047436959400B
:1015C00041617047044A5169014200D1704708B532
:1015D000506106F09FFB08BD003C0140F0B138B5FA
:1015E00090F82930044603F0FF0293B100230C4920
:1015F00002202568012284F829001846A36163614E
:10160000E3610B682B430B6084F8292084F82120C8
:1016100038BD80F8282007F00DFFE7E7012070476C
:101620000004065000284DD0F8B590F8413004462B
:1016300003F0FF02002B40D02421E568D4E90032FA
:1016400084F84110012D186822F07061A26820F022
:10165000010018601961996821F40041996028D04F
:1016600042F40442022D9A6002D14FF400625A60A3
:101670005A68002114482027A6691043D4E904259C
:1016800058602A43D868E56942EA0622266A20F4AF
:1016900000403543D8600846DA601D601A6842F0A1
:1016A00001021A60616484F84170216384F8421079
:1016B000F8BD42F400429A60DAE780F8402007F073
:1016C000C9FEB9E7012070470080000290F8413060
:1016D000DBB2202B70B41FD190F84020012A1BD020
:1016E00002682424002680F841401568344625F01D
:1016F00001051560156825F48055156015682943A6
:101700001160116841F00101116080F8406080F8BB
:101710004130204670BC70470224204670BC7047A0
:1017200090F84130DBB2202B70B41ED190F84020ED
:10173000012A1AD002682424002680F84140146847
:10174000354624F001041460146824F4706444EAFB
:1017500001211160116841F00101116080F84060C1
:1017600080F84130284670BC70470225284670BC7E
:10177000704700BF002873D090F8BD33F0B503F078
:10178000FF028BB00646002B65D003233546306838
:101790006C4686F8BD33371D02F0C6FF55F810EBD6
:1017A000AC46BCE80F000FC4BCE80F000FC49CE8B7
:1017B000030084E803007046012497E80E0002F05D
:1017C00075FF0021306802F0B7FF00213246334632
:1017D000084683F83C10A3F84210013183F83D40DD
:1017E0000F2983F83F001865C3E9110003F11C03BA
:1017F000EFD100231C4682F8FC31013382F8FD4111
:101800001C320F2B82F8E341C2F8E841C2F8EC41E8
:10181000C2F8F441EFD10FCDEC46D6F800E0ACE8C9
:101820000F000FCDACE80F0095E803008CE8030033
:10183000704697E80E0002F097FF0122736A86F85F
:101840003840934286F8BD230CD0306803F060F82E
:1018500000200BB0F0BD80F8BC2308F037F894E707
:1018600001207047304600F001F8EEE703680121DF
:10187000084A30B4C0F8F81304469969002541F0CD
:10188000006184F8F05328469961596D0A4330BCD1
:101890005A657047030000101B4A1C4B116C41F045
:1018A000805130B5116483B0126C1C4602F0805236
:1018B0000192019A1A6842F480321A60FEF7D0FE53
:1018C000054605E0FEF7CCFE401BB0F57A7F17D841
:1018D0006368DA03F6D523680C4D43F400332360C4
:1018E000FEF7BEFE044605E0FEF7BAFE001BB0F5AB
:1018F0007A7F05D86B689B03F6D5002003B030BD16
:10190000032003B030BD00BF00380240007000402B
:101910000D490E484A6808B54B6802F03F02496815
:1019200013F48003C1F3881118BF0023A1FB000149
:10193000FEF786FC044B5B68C3F3014301335B0095
:10194000B0FBF3F008BD00BF003802400024F400F3
:10195000002800F0348103682DE9F041DD0782B0F2
:10196000044635D5AB498A6802F00C02042A00F01F
:10197000FE808A6802F00C02082A00F0F480636896
:10198000B3F5803F10D0002B00F01B81B3F5A02FE2
:10199000A04B1A6800F0628122F480321A601A6843
:1019A00022F480221A6004E09A4A136843F48033D8
:1019B0001360FEF755FE974D064605E0FEF750FE14
:1019C000801B642800F2EE802B689A03F6D523680A
:1019D0009F0742D41A0717D56369002B00F0B08027
:1019E0008C4B5A6F1D4642F001025A67FEF738FED3
:1019F000064605E0FEF734FE801B022800F2D28086
:101A00006B6F9B07F6D523685D076BD5814B1A6C0E
:101A1000D00000F1ED801A6C012542F080521A646A
:101A20001B6C03F080530193019B7B4B1A68D1051B
:101A300040F1A780A368012B39D0002B00F0DA8099
:101A4000052B744B1A6F00F0118122F001021A6706
:101A50001A6F22F004021A672EE06E4A916811F0A4
:101A60000C0F62D0916801F00C0108295AD0E3688C
:101A7000002B00F0DF80674B1A681D4642F0010220
:101A80001A60FEF7EDFD064605E0FEF7E9FD801B56
:101A9000022800F287802B689807F6D52B68226908
:101AA00023F0F80343EAC2032B60236892E7594A04
:101AB000136F43F001031367FEF7D2FD554E8046C6
:101AC00041F2883705E0FEF7CBFDA0EB0800B842F5
:101AD00068D8336F9B07F6D525B14E4A136C23F0B7
:101AE00080531364A369CBB14A4A916801F00C0199
:101AF000082921D0022B136800F0C08023F08073E6
:101B000014461360FEF7ACFD054604E0FEF7A8FDA1
:101B1000401B022846D823689B01F7D4002002B05E
:101B2000BDE8F08152685602A1D43A4A126895077E
:101B30003CD5E268012A39D0012002B0BDE8F0812D
:101B4000344B5A6F1D4622F001025A67FEF788FD9A
:101B5000064604E0FEF784FD801B022822D86B6F46
:101B60009F07F7D44FE74A6850027FF508AF294A2C
:101B7000126891037FF52CAF6268002A7FF428AFCA
:101B8000DAE71A681E4642F480721A60FEF768FDB2
:101B900007463368DA053FF54DAFFEF761FDC01B20
:101BA0006428F6D9032002B0BDE8F0811949206904
:101BB0000A6822F0F80242EAC0020A600AE701203D
:101BC0007047144B1A681D4622F480321A601A6856
:101BD00022F480221A60FEF743FD064604E0FEF779
:101BE0003FFD801B6428DDD82B689B03F7D4EEE60D
:101BF00000251AE7074B41F288381A6F1E4622F07B
:101C000001021A671A6F22F004021A67FEF728FD14
:101C1000074608E00038024000700040FEF720FD53
:101C2000C01B4045BED8336F9807F7D4002D3FF452
:101C300059AF52E72C4B1A681D4622F001021A6078
:101C4000FEF70EFD064604E0FEF70AFD801B0228A3
:101C5000A8D82B689907F7D42368BBE642F4802202
:101C60001A601A6842F480321A60A2E642F0040256
:101C70001A671A6F42F001021A671DE723F080739A
:101C800015461360FEF7ECFC064604E0FEF7E8FCA0
:101C9000801B022886D82B689901F7D4D4E9073233
:101CA000616A1343D4E90A2043EA8113216B520885
:101CB0000D4C43EA0063013A43EA017343EA0243ED
:101CC0006B602B6843F080732B60FEF7C9FC054600
:101CD00005E0FEF7C5FC401B02283FF663AF236812
:101CE0009A01F6D51AE700BF0038024078B14E4A93
:101CF000136803F00F038B420BD2136823F00F031A
:101D00000B431360136803F00F038B4201D00120D3
:101D1000704703682DE9F0419D0714D55C0704D591
:101D2000424CA26842F4E052A2601A0704D53F4C2C
:101D3000A26842F46042A2603C4C8568A26822F02E
:101D4000F0022A43A260DF0704460D4621D542680F
:101D5000364B012A1B685ED0022A61D0990728D52C
:101D6000324941F288388B680E4623F0030313434F
:101D70008B60FEF775FC074604E0FEF771FCC01BA4
:101D800040454BD8B368626803F00C03B3EB820F95
:101D9000F3D1254A136803F00F03AB420CD9136843
:101DA00023F00F032B431360136803F00F03AB42C0
:101DB00002D00120BDE8F08123685A0706D51B49EF
:101DC000E0688A6822F4E05202438A601B0707D564
:101DD000164A2169936823F4604343EAC103936080
:101DE000124B9B6803F00C03082B10D0104A0F4BCA
:101DF0000020104C9B681049C3F30313E35C22FAE4
:101E000003F30B60FEF7F4FB0020BDE8F081FFF761
:101E10007FFD0246EBE79E03A2D4CAE70320C9E791
:101E200098019DD4C5E700BF003C02400038024045
:101E30000024F4005CDD000810000020044B9B68C7
:101E400003F00C03082B01D002487047FFF760BD78
:101E5000003802400024F400014B1868704700BFAE
:101E600010000020044B054A9B680549C3F38223F8
:101E70000868D35CD8407047003802406CDD000829
:101E800010000020044B054A9B680549C3F3423308
:101E90000868D35CD8407047003802406CDD000809
:101EA0001000002003682DE9F04313F0010683B011
:101EB00004460BD09F4A916821F400019160466B63
:101EC00091683143B6FA86F67609916013F40025DD
:101ED00010D09849E56BD1F88C20B5F5801F22F41D
:101EE000401242EA0502C1F88C2000F0D481B5FA14
:101EF00085F56D09D90210D58E48216CD0F88C205B
:101F0000B1F5800F22F4400242EA0102C0F88C20B1
:101F100000F0BF81002908BF012513F0807F18BFA2
:101F200001269A0600F16D81DA060CD5814AD2F8B5
:101F30008C1021F08071C2F88C10D2F88C10A06B3C
:101F40000143C2F88C105F0408D57A49606ED1F85D
:101F5000902022F440320243C1F89020180408D5A2
:101F60007449A06ED1F8902022F440220243C1F8B7
:101F70009020D90308D56F49E06ED1F8902022F463
:101F800040120243C1F890209A0308D56949206F96
:101F9000D1F8902022F440020243C1F890205F065D
:101FA00008D56449606CD1F8902022F00302024306
:101FB000C1F89020180608D55E49A06CD1F8902091
:101FC00022F00C020243C1F89020D90508D55949E6
:101FD000E06CD1F8902022F030020243C1F890204A
:101FE0009A0508D55349206DD1F8902022F0C002FF
:101FF0000243C1F890205F0508D54E49606DD1F8C5
:10200000902022F440720243C1F89020180508D5B0
:102010004849A06DD1F8902022F440620243C1F8F3
:102020009020D90408D54349E06DD1F8902022F4DE
:1020300040520243C1F890209A0408D53D49206ED1
:10204000D1F8902022F440420243C1F890205F0270
:1020500008D53849A06FD1F8902022F08062024361
:10206000C1F8902098020CD53249E06FD1F8902049
:10207000B0F1006F22F0006208BF01250243C1F8F1
:10208000902013F0080F18BF0125590308D52949DE
:10209000606FD1F8902022F040720243C1F8902086
:1020A0001A0209D52349D4F88000D1F8902022F0F3
:1020B00080520243C1F890205F0109D51D49D4F830
:1020C0008400D1F8902022F000520243C1F8902001
:1020D000180109D51749D4F88800D1F88C2022F0CE
:1020E00000720243C1F88C20D9000BD4B3F1007FF9
:1020F00016D0F20714D4012D00F0D080002003B0D8
:10210000BDE8F0830B49B3F1007FD4F88C00D1F81F
:102110008C2022F0806242EA0002C1F88C20E8D1D3
:10212000044B1A681E4622F080621A60FEF798FA85
:10213000074606E000380240FEF792FAC01B64280A
:102140005BD833681B01F7D42368DF0712D5626BB5
:1021500082B9D6F88420D6F8847002F440326068E0
:1021600007F07067A1683A4342EA801242EA0172BE
:10217000C6F884201E0300F10F81D80204D5226C1A
:10218000B2F5800F00F00D81D90111D5A44E606821
:10219000D6F88420D6F8847002F07062216907F0C6
:1021A000E0473A4342EA801242EA0142C6F88420FC
:1021B0009A010DD5236962681B04D4E9021043EA31
:1021C0008213974A43EA006343EA0173C2F88430FA
:1021D000934B1A681E4642F080621A60FEF740FA7E
:1021E000074604E0FEF73CFAC01B642805D83368B4
:1021F0001B01F7D5012D81D150E0032003B0BDE8CC
:10220000F083874A874B116C1F4641F0805111645F
:10221000126C02F080520192019A1A6842F48072A4
:102220001A60FEF71DFA804605E0FEF719FAA0EBEA
:1022300008006428E1D83B68DB05F6D5784A236BB3
:10224000116F03F4407011F4407111D088420FD027
:10225000116F176F21F4407147F480371767176FBC
:1022600027F4803717671167116FCF0700F1C3801C
:10227000B0F5407F00F0B18069498A6822F4F81215
:102280008A60674AC3F30B03116F0B43136723681C
:102290004AE6012641E6002501262BE6604B1A6836
:1022A0001D4622F080521A60FEF7DAF9064604E075
:1022B000FEF7D6F9801B64289FD82B689F00F7D4BF
:1022C00023681D0300F19280D8021DD5226CDAB973
:1022D00053496569D1F88820D1F8886002F440320A
:1022E000A06906F0E046324342EA851242EA006203
:1022F000C1F88820D1F88C20A06A22F4F852013865
:1023000042EA0022C1F88C20990215D5E26FB2F1A1
:10231000006F11D142496569D1F88820D1F88860F1
:1023200002F07062206A06F0E046324342EA85120B
:1023300042EA0042C1F888201A0719D5384A65696F
:10234000D2F88810D2F8883001F07061E06903F4A7
:1023500040330B4343EA851343EA0073C2F88830E5
:10236000D2F88C30E16A23F440330B43C2F88C304E
:102370002B4B1A681C4642F080521A60FEF770F927
:10238000054605E0FEF76CF9401B64283FF635AFC3
:1023900023689B00F6D5B1E6E26BB2F5801F7FF4AF
:1023A000ECAE1F4E6068D6F88420D6F8847002F434
:1023B0004032E16807F0E0473A4342EA801242EADD
:1023C0000162C6F88420D6F88C10626A21F01F01E1
:1023D000013A0A43C6F88C20D6E6114812498268B1
:1023E000194022F4F8120A4382604AE7E26B002A9D
:1023F0003FF46EAF68E7174641F28838FEF730F9D0
:10240000814606E0FEF72CF9A0EB090040453FF6B7
:10241000F4AE3B6F9907F5D5236B03F4407027E7C3
:102420000038024000700040FFFCFF0FA0B1437A6B
:1024300010B503F0FF02044653B1226802230121C4
:1024400000206372136843F004031360617210BDCF
:10245000027207F027F8F0E7012070472DE9F047F6
:102460000D4686B0044616461F46FEF7F9F875B3CA
:10247000804694F83400C0B2012807D0A36B012035
:1024800043F00053A36306B0BDE8F087F319E26D93
:1024900000219342A16322D8636C03222068012BA0
:1024A00084F83420C1624FF4007118BF760201F045
:1024B00045FF0346D0B1226840F2FF5001219063EE
:1024C000A26B08461343A36384F83410DBE7A36BC5
:1024D000012043F00063A36306B0BDE8F087A36B5F
:1024E00043F00073A36306B0BDE8F0874FF0FF31FF
:1024F000780290224FF0010A4FF0020900910190FA
:10250000694620680493CDF814A0CDE9022901F0B2
:10251000FFFE574533D9C4F830903146206801F0AA
:102520002FFF0246236852B11EE00E9B7BB3FEF7DD
:1025300097F80E9BA0EB0800984228D223685A6BAC
:1025400012F4957F5A6B2FD11204EED52E1F05F190
:102550001C0900E02368184601F0BCFE46F8040F91
:102560004E45F7D12035E0E740F2FF500121986356
:102570000846A36B1A43A26384F8341083E7C4F8B7
:1025800030A03146206801F0E9FE0246CAE7236820
:1025900040F2FF51012203209963A36B43F00043F3
:1025A000A36384F834206EE7D6050BD5012F09D933
:1025B000626C032A06D0184601F016FF2368014614
:1025C000002856D15A6B100722D45A6B91072BD48E
:1025D0005A6B92060FD533E001F07CFE0E9B45F856
:1025E000040B002B38D0FEF73BF80E9BA0EB080045
:1025F000984231D223685A6B184612F40012EBD17C
:1026000040F2FF55012110469D6384F834103AE7EB
:1026100040F2FF51012299631046A36B43F0080377
:10262000A36384F834202EE740F2FF51012299631E
:102630001046A36B43F00203A36384F8342022E71F
:1026400040F2FF51012299631046A36B43F020032F
:10265000A36384F8342016E7236840F2FF51012277
:102660009963A36B104643F00043A36384F83420BE
:1026700009E740F2FF50012298631046A36B0B4319
:10268000A36384F83420FEE62DE9F0410D4686B0C0
:10269000044616461F46FDF7E3FF002D38D080465E
:1026A00094F83400C0B2012807D0A36B012043F096
:1026B0000053A36306B0BDE8F081F319E26D002179
:1026C0009342A1632CD8636C03222068012B84F809
:1026D0003420C1624FF4007118BF760201F02EFE63
:1026E000034620BB012F20682DD9202331462363C8
:1026F00001F068FE0346206863B340F2FF520121F7
:1027000082630846A26B1343A36384F83410D1E7B5
:10271000A36B012043F00063A36306B0BDE8F08122
:10272000A36B43F00073A36306B0BDE8F081226899
:1027300040F2FF5001219063A26B08461343A3634C
:1027400084F83410B6E710233146236301F02AFEE3
:102750000346D0E779024FF0FF3690220191694697
:1027600000960292CDE903330123059301F0D0FDD9
:1027700008E00C9BDBB1FDF773FF0C9BA0EB08009E
:10278000984214D223685A6B12F48D7F5A6B19D178
:102790005604EED505F1200600E0236829460435ED
:1027A000184601F09BFDAE42F7D13546E1E72268BD
:1027B00040F2FF51012303209163A26BA26384F8CE
:1027C000343077E7D0050BD5012F09D9626C032A85
:1027D00006D0184601F008FE23680146002835D1CE
:1027E0005A6B110712D45A6B92071BD45A6B12F012
:1027F000100223D040F2FF51012299631046A36BCF
:1028000043F01003A36384F8342053E740F2FF51F0
:10281000012299631046A36B43F00803A36384F875
:10282000342047E740F2FF51012299631046A36B21
:1028300043F00203A36384F834203BE740F2FF55E2
:10284000012110469D6384F8341033E740F2FF50B5
:10285000012298631046A36B0B43A36384F83420D2
:1028600028E700BF436E9A0FF0B50A70C3F3836781
:10287000C3F30165C3F30744C3F30722DBB24F7010
:1028800000268D70CC700A714B71836E1D0EC3F3E0
:102890000354C3F307222D014FEAD21CCD80C3F3AA
:1028A0000345CF883C43C2F38017CC80C2F30014A9
:1028B0000D72C2F3401581F809C08F72CD720C738E
:1028C0004E73446C002C40F088809202C46E9B00D2
:1028D000012502F44062E60B03F47F73C4F3026C3B
:1028E0000A6106F006060A69C4F34257C4F3C26ED1
:1028F0001A430A61C4F382420B6943EA94730B6181
:10290000C4F3072381F814E081F815C0C4F3C03C78
:102910008F754FF40077CA750E760A7E42EA0C0274
:102920000A760A690E7E2A440236B24042650E7A61
:102930000766B5406E0A856502FB06F2C2655D005A
:10294000C3F38012C4F3C01704F07F0305F07E04C4
:102950004A7600258C768A7E2E463A4301278A766F
:10296000CB76036FDA0FC3F341709C0DC3F3405C69
:102970000A77C3F3826204F00C0448778A77C3F3C2
:102980008150CC77C3F30044CA7F0243C3F3C03005
:10299000CA77C3F3803281F820C081F82150C3F395
:1029A000403581F82240C3F3003481F82300C3F39B
:1029B000812081F82420C3F30122C3F3460381F868
:1029C000255081F8264081F82700304681F82820DC
:1029D00081F8293081F82A70F0BD012C0DD00368F0
:1029E00040F2FF5101229963836B164643F08053F6
:1029F000836380F834203046F0BD1A04C46E4FF46F
:102A0000007602F47C12230E0A61C4F307420D69BA
:102A100045EA0325C4F307230D610D692A430A61C2
:102A20000A6986650132066692024265C26586E7DA
:102A300070B598B00025762104460AAA06680A9562
:102A400007AB0995CDE90B5107CACDE907558DE8CC
:102A5000070030460ECB01F021FC23685A68184667
:102A600022F480725A6001F03FFC22680220536811
:102A700043F480735360FDF7F9FD2068069501F07B
:102A8000D9FC054638B1012084F83400A36B1D43FE
:102A9000A56318B070BD206801F0F8FC00284BD089
:102AA0004FF6FF76A564069B00215A1CB34206929E
:102AB00000F0B580206801F029FD002840F0B280C8
:102AC0000146206801F034FD002840F0AB8001464B
:102AD000206801F013FC0028E5DA00236364012379
:102AE0002068ADF8163001F005FC002800F0948055
:102AF000626C2368032A42D11846042101F0FEFBD0
:102B00000DA9030D2046E364FFF7ACFE226D002300
:102B10002068120401F07CFC05460028B3D1231D77
:102B200054F8106B94E807008DE8070030460ECB90
:102B300001F0B4FB2846ACE701234FF6FF76A3640F
:102B4000069B00215A1CB342069268D0206801F00F
:102B5000DDFC4FF080410546002894D1206801F04B
:102B6000E7FC054600288ED10146206801F0C6FB2F
:102B70000028E5DA4300B0D501236364AFE71846C7
:102B800001F0E8FC054600287FF47DAF014620688F
:102B900001F0B4FB04216067206801F0AFFB08215D
:102BA000A067206801F0AAFB0C21E067206801F013
:102BB000A5FB636CC4F88000032B36D00DF1160121
:102BC000206801F0E7FC054600287FF45CAF626CEA
:102BD0002368032A90D0BDF8161018462165090411
:102BE00001F0C8FC054600287FF44DAF014620687F
:102BF00001F084FB04216066206801F07FFB08215E
:102C0000A066206801F07AFB0C21E066206801F0E4
:102C100075FB236820676FE74FF0806533E74FF05F
:102C2000807530E74FF080552DE7236864E700BFDB
:102C3000C0B190F8343010B503F0FF0204466BB118
:102C40000323204684F83430FFF7F2FE00230122EC
:102C5000A3631846236384F8342010BD027706F07E
:102C600037FCEDE7012070470346002030B4D3E97C
:102C70001125DC6C0A601A6D4D605D6D8C609C6D79
:102C8000CA60D3E91723C1E90454C1E9062330BC63
:102C9000704700BF016D10B509040446006801F0DB
:102CA000D9FC014620B1A36B00201943A16310BDDC
:102CB000206801F023FBC0F3432010BD0346D0E998
:102CC00000205168B0F5827F21F0E001516014D0FE
:102CD000996AB1F5005F08D111684DF6FF700140A7
:102CE0001160116841F4005111600121002203209C
:102CF00083F85D1083F85C2070479968B1F5004F48
:102D000002D0B1F5806FE3D1116821F0400111606C
:102D1000DEE700BF70B505460C4616462B6801E09D
:102D2000621C04D1986810F08000F9D170BD24B104
:102D3000FDF796FC801B8442F0D82846BDE8704021
:102D4000FFF7BCBF2DE9F041074682B00C4616469E
:102D500098463D680AE0B4F5C06F05D1297BC9B239
:102D60008DF807109DF80720731C05D1A868204036
:102D7000F1D102B0BDE8F0812EB1FDF771FCA0EBFE
:102D800008008642E5D8384602B0BDE8F041FFF7BA
:102D900095BF00BF70B50D46164613464FF4C0519F
:102DA0002A460446FFF7CEFF70B932462946204630
:102DB000FFF7B0FF40B933462A464FF4C0612046C2
:102DC000FFF7C0FF00B970BD236E032043F020035E
:102DD000236670BD00285DD0002290F85D302DE99B
:102DE000F0418262044603F0FF02002B4DD0E768F9
:102DF00002232268B7F5E06F84F85D3027F40061A4
:102E0000136894BF4FF48055002523F04003B1F5BB
:102E1000E06F136035D1A66A236B2BB9B7F5E06F6D
:102E20008CBF022301232363A1684FF0000863686D
:102E300020690B43616903430B43D4E906010B434B
:102E4000616A4FEA104C00F4007E0F43216A0CF0D7
:102E5000040C40460B43616B0F4343EA0E034FF0F3
:102E6000010E47EA0C0733433D4313605560D369B5
:102E700023F40063D361C4F8608084F85DE0BDE8AA
:102E8000F08100231E46A362C6E780F85C2006F0AE
:102E90005FFBACE7012070472DE9F0411E4690F83A
:102EA0005C3082B0012B69D0012304460D46904668
:102EB00080F85C30FDF7D4FB94F85D300746012BB9
:102EC00009D002200122002384F85D2084F85C30C0
:102ED00002B0BDE8F081002D54D0B8FA88F35B0948
:102EE000002B4FD1A1680322A563B1F5004F84F8F0
:102EF0005D20A4F83C8023662364A4F83E80A4F8F7
:102F000044302268A4F84630C4E9133303D113686F
:102F100043F48043136013685B0603D4136843F0E3
:102F200040031360E368B3F5E06F34D9E08F80B2FB
:102F300070B123689A68900751D535F8022BDA6092
:102F4000E38F013B9BB2E387E08F80B20028F0D192
:102F50003A4631462046FFF71DFF08B1202323667D
:102F6000A36833B922680193D368019393680193EE
:102F7000019B206E003018BF0120A3E7022002B0A1
:102F8000BDE8F08101209DE72A7801351A73E38FAF
:102F9000013B9BB2E387E08F80B20028D8D0236842
:102FA0009A68920711D5E28F012AEDD935F8022BE4
:102FB000DA60E38F023B9BB2E387E08F80B20028A8
:102FC000C6D023689A689207EDD436B1731CE2D05C
:102FD000FDF746FBC01BB042DDD3032072E7002E95
:102FE000FBD0711CA2D0FDF73BFBC01BB0429DD3B0
:102FF000F3E700BF034602220020196810B4012441
:1030000083F83D200A6822430A6083F83D405DF85A
:10301000044B704703680122186A02FA01F120EAA2
:10302000010010B418620B4C1A6AA34241EA020173
:1030300019620AD0084A934207D01A6800205DF846
:10304000044B42F001021A6070475A6C42F400428D
:103050005A64F2E70000014000040140704700BFDD
:10306000FFF7D8BF90F83C30012B66D003685F4A69
:10307000F0B40224012580F83D409C6880F83C5063
:1030800022400C68402C9A6000F0978019D9702C6F
:1030900000F081802BD9B4F5805F77D0B4F5005F64
:1030A0001CD1CC68D1E9015299682A4321F47F41AF
:1030B00042EA04220A439A609A6842F480429A6083
:1030C0000CE0102C43D02FD9202C39D0302C05D136
:1030D0009A6822F0700242F037029A6000230122BF
:1030E00080F83C3080F83D201846F0BC7047502CEA
:1030F00034D0602CF2D11C6A4D6824F01004CE68E4
:103100001C6299691A6A21F4704122F0A00241EA16
:10311000063142EA051299611A629A6822F0700239
:1031200042F067029A60D9E7002CD7D19A6822F062
:10313000700242F007029A60D0E702221046704700
:103140009A6822F0700242F027029A60C6E79A68F5
:1031500022F0700242F017029A60BFE71E6A1D6AF1
:103160004C6826F00A0625F00105CF6834431D623D
:103170009A6922F0F00242EA07129A611C629A6888
:1031800022F0700242F057029A60A7E79968184A45
:103190000A409A60A2E7D1E90142CD6822439C68C7
:1031A000144942EA052224F47F4422439A609A6833
:1031B000114041F07701996090E71E6A1D6A4C68E2
:1031C00026F00A0625F00105CF6834431D629A698E
:1031D00022F0F00242EA07129A611C629A6822F019
:1031E000700242F047029A6078E700BF8800FEFF55
:1031F000F8FFFEFF88FFFEFF704700BF704700BF6B
:10320000704700BF704700BF03681A69910710B587
:10321000044602D5DA68920768D41A69520702D5C3
:10322000DA6850074FD41A69110702D5DA68120715
:1032300037D41A69D00602D5DA68D1061ED41A69C5
:10324000D20702D5DA68D00769D41A69110602D507
:10325000DA6812066BD41A69D00502D5DA6811064D
:103260006DD41A69520602D5DA6850066FD41A690D
:10327000910602D5DA68920649D410BD6FF01001AC
:10328000082220461961DB69227713F4407F6FD151
:10329000FFF7B2FF2046FFF7B3FF00222368227733
:1032A000CDE76FF00801042220461961DB6922771F
:1032B0009B075AD1FFF7A0FF2046FFF7A1FF00228E
:1032C00023682277B5E76FF00401022220461961D6
:1032D0009B69227713F4407F44D1FFF78DFF20468E
:1032E000FFF78EFF0022236822779CE76FF0020130
:1032F000012219619B690277990730D1FFF77CFFA2
:103300002046FFF77DFF00222368227785E76FF0D4
:10331000200220461A61BDE8104000F017BA6FF095
:10332000010220461A6104F04FFD23688DE76FF01B
:10333000800220461A6100F00BFA23688BE76FF0D9
:10334000800220461A6100F003FA236889E76FF0D3
:10335000400220461A61FFF755FF236887E7FFF711
:103360004DFFD0E7FFF74AFFBCE7FFF747FFA6E7AF
:10337000FFF744FF91E700BFF0B4324EB0F1804F49
:10338000314FA0EB06060368A0EB0707B6FA86F6F6
:10339000B7FA87F74FEA56164FEA571725D026BBDC
:1033A0002A4A90423ED002F5806290423AD002F51D
:1033B000806290423BD0002F39D1254A904218D0EC
:1033C00002F58062904214D002F58062904210D0E3
:1033D000A2F5983290420CD002F58062904208D05B
:1033E00002F58062904208D103E023F070034D683B
:1033F0002B4323F44073CD682B434A6923F08003A9
:103400008C6813430A680360C462826226B91FB9DC
:103410000123F0BC436170470B6903630123F0BCD7
:103420004361704723F070034A681343E1E7094A98
:1034300023F070034C68904243EA0403D9D0002F74
:10344000D7D1BAE700000140000401400004004069
:1034500000400140000C0040B8B190F83D3010B57C
:1034600003F0FF0204465BB102232068211D84F8AB
:103470003D30FFF781FF0123002084F83D3010BD6F
:1034800080F83C2006F0C8F8EEE70120704700BF46
:10349000B8B190F83D3010B503F0FF0204465BB1BF
:1034A00002232068211D84F83D30FFF765FF0123CA
:1034B000002084F83D3010BD80F83C20FFF7CEFDA1
:1034C000EEE70120704700BFF0B4046A8D6824F075
:1034D00001040E68124A0462036A446823F002037E
:1034E00087692B430F4D3A40A84242EA06020AD0B0
:1034F00005F58065A84206D0496844608261416351
:103500000362F0BC704723F00803CF684D6924F4D0
:1035100040748E693B43354323F004032C43EBE7AF
:103520008CFFFEFF00000140F0B4046A8D6824F0B7
:1035300010040E68144A0462036A446823F02003EE
:10354000876943EA0513114D3A40A84242EA062230
:103550000AD005F58065A84206D0496844608261BA
:1035600081630362F0BC704723F08003CF684D692C
:1035700024F440648E6943EA0713354323F0400383
:1035800044EA8504E9E700BFFF8CFFFE000001402C
:10359000F0B4046A8D6824F480740E68144A0462DE
:1035A000036A446823F40073C76943EA0523114D95
:1035B0003A40A84242EA06020AD005F58065A842D0
:1035C00006D049684460C261C1630362F0BC7047C1
:1035D00023F40063CF684D6924F440548E6943EAB4
:1035E0000723354323F4806344EA0514E9E700BF69
:1035F0008CFFFEFF00000140F0B4046A8D6824F4E3
:1036000080540E680F4A0462036A446823F400532E
:10361000C76943EA05330C4D3A40A84242EA062204
:103620000AD005F58065A84206D049684460C261A9
:1036300001640362F0BC704724F480444D6944EA9D
:103640008514F2E7FF8CFFFE00000140F0B4046A2D
:103650008D6824F480340E680F4A0462036A44685B
:1036600023F40033476D43EA05430C4D3A40A8422A
:1036700042EA06020AD005F58065A84206D04968EC
:103680004460426581650362F0BC704724F4803475
:103690004D6944EA0524F2E78FFFFEFF0000014078
:1036A000F0B4046A8D6824F480140E680F4A046232
:1036B000036A446823F40013476D43EA05530C4D35
:1036C0003A40A84242EA06220AD005F58065A8429F
:1036D00006D0496844604265C1650362F0BC70472A
:1036E00024F480244D6944EA8524F2E7FF8FFFFE2D
:1036F0000000014090F83C30012B70B41FD00268EC
:10370000114D5368AA42946814D005F58065AA4209
:1037100010D00E680025896824F0800423F070031F
:10372000214333432E465360916080F83C5030462D
:1037300070BC704723F470034D682B43E9E7022601
:10374000304670BC704700BF00000140704700BFAA
:10375000704700BF38B590F83C30012B00F08D80E9
:103760000D4602230121044680F83D3080F83C10CC
:10377000142A1DD8DFE802F00B1C1C1C371C1C1C73
:103780004A1C1C1C5C1C1C1C6F1C1C1C2400294695
:103790000068FFF799FE23682869996941F00801DC
:1037A0009961996921F0040199619A6902439A61CA
:1037B00000230122184684F83D2084F83C3038BDAF
:1037C00029460068FFF76CFF23682869596D41F4AA
:1037D00000615965596D21F4806159655A6D42EA5D
:1037E00000225A65E4E729460068FFF79DFE23683A
:1037F0002869996941F400619961996921F48061AE
:1038000099619A6942EA00229A61D1E729460068E3
:10381000FFF7BEFE23682869D96941F00801D96124
:10382000D96921F00401D961DA690243DA61BFE79D
:1038300029460068FFF7E0FE23682869D96941F44A
:103840000061D961D96921F48061D961DA6942EAFC
:103850000022DA61ACE729460068FFF7F7FE23682B
:103860002869596D41F008015965596D21F004012D
:1038700059655A6D02435A659AE7022038BD00BF68
:10388000034690F86A0020282DD171B36AB393F8EB
:103890006800012827D0986810B4B0F5805F4FF019
:1038A00001045965A3F85820A3F85A2083F868400A
:1038B0001DD040BB1A6912BBFF22A3F85C20002474
:1038C0001A682221DC66204683F86A10916883F822
:1038D000684041F001015DF8044B9160136843F4C6
:1038E00090731360704702207047012070471A6977
:1038F000002AE1D140F2FF12A3F85C20DFE77F222B
:10390000A3F85C20DBE7B0F1805FD8D11A69002A08
:10391000F5D03F22A3F85C20D1E700BF2DE9F843A2
:10392000089D80460F4616469946D8F8004001E0AB
:103930006B1C0AD1E06937EA00030CBF01200020AC
:10394000B042F5D00020BDE8F8833DB1FCF788FE19
:10395000A0EB0900A842E8D3D8F800402368202251
:103960000021032023F4D0732360A36823F0010314
:10397000A36088F8692088F8681088F86A20E2E770
:103980002DE9F0411F4690F8693084B0202B36D1E4
:103990000E46002937D0B2FA82F303925B0993BB3B
:1039A00090F868100446012929D0C366012121231B
:1039B00080F8681080F86930FCF752FE039A804660
:1039C000A4F85020A4F85220B4F8525043460022E4
:1039D0008021ADB220463DB3B4F852500097013D6E
:1039E000ADB2A4F85250FFF799FFC8B9A268236896
:1039F000B2F5805F0BD0327801369A62E4E702209C
:103A000004B0BDE8F081012004B0BDE8F081226976
:103A1000002AF0D136F8022BC2F308029A62D3E7EB
:103A2000032004B0BDE8F08100972A464021FFF74B
:103A300075FF0028F4D1202384F8680084F86930E9
:103A4000DEE700BF704700BF90F86A20222A38B531
:103A5000036814D18468B0F85C10B4F5805F426DDF
:103A600013D05B6A541C0B4044651370B0F85A4085
:103A7000013CA4B2A0F85A4084B1002038BD9A6934
:103A8000022042F008029A6138BD0469002CE8D196
:103A90005B6A0B4022F8023B4265E7E7026820259B
:103AA000116821F490711160916821F00101916019
:103AB00080F86A5004F0FEF8204638BD704700BF19
:103AC0000368DA6970B516071D680446996828D13D
:103AD000910602D5AE0600F18B80160604D451067D
:103AE00001D56A0679D470BD2806F8D594F8692006
:103AF000212AF8D1B4F8522092B2002A00F0918025
:103B0000A168E26CB1F5805F00F09480511CE16423
:103B100012789A62B4F85230013B9BB2A4F852304A
:103B200070BD11F0010102D115F4907FD5D0D007FE
:103B300007D5EE0505D501201862E06E40F00100C2
:103B4000E066900738D4500701D500293ED116070A
:103B500003D5A80650D400294ED1E16E0029C2D069
:103B6000960601D5A80652D4E26E110703D49D68CB
:103B700015F0400550D01A68202122F490721A6086
:103B80009A6822F001029A6084F86A109A685206D4
:103B900039D59A68616E22F040029A60002932D0CD
:103BA0002A4B08460B65FDF7FDFA00289BD0606E96
:103BB000BDE87040036D18470029C8D002205607A1
:103BC0001862E06E40F00400E066C0D50420186280
:103BD000E06E40F00200E066B9E71A682021204656
:103BE00022F040021A6084F86910FFF72BFF70BDC5
:103BF000BDE87040FFF728BF08211962E16E41F06F
:103C00000801E166A9E72046FFF758FF70BD20468E
:103C1000FFF71AFF2368A7E72046FFF74FFFE56687
:103C200070BD1A6822F080021A601A6842F04002E1
:103C30001A6070BD216900297FF468AF32F8021B59
:103C4000C1F308019962E26464E700BF513C0008D7
:103C500008B50022836BA3F85A201846A3F8522017
:103C6000FFF72CFF08BD00BFF8B504468368A249E2
:103C7000E669E768A14DD0E904201A4323680243AE
:103C80001868AB4201EA000142EA060242EA010278
:103C9000A1691A605868226A20F4405042EA010281
:103CA00040EA07005860996821F4306142EA010255
:103CB0009A6043D0924A93421DD0924A934200F0B8
:103CC0009080914A934200F0B880904A934247D046
:103CD0008F4A934200F09F808E4A934200F0E98021
:103CE0008D4A934200F0F680B6F5004F00F0D28086
:103CF00001221046F8BD8949894AD1F8901001F097
:103D00000C010A441279B6F5004F1FD0082AEFD8EB
:103D100001A151F822F000BFD73D00088D3D0008F9
:103D20007F3E0008F13C00082F3E0008F13C0008EF
:103D3000F13C0008F13C0008053E0008774A78494C
:103D4000D2F8902002F003028A5CDCE7082A00F235
:103D5000A180DFE802F04328809F6F9F9F9F8E0025
:103D600002F5F432D2F8902002F44072B2F5807F6E
:103D70005AD02BD9B2F5007F6AD0B2F5407F3ED041
:103D8000B2E7002AB0D1B6F5004F0CD0FEF77AF8B2
:103D90000022D4E9001300EB5300B0FBF3F080B233
:103DA000C8601046F8BDFEF76DF80022D4E9003572
:103DB000690801EB4000B0FBF5F0C0F3420120F0D0
:103DC0000F00014389B2D9601046F8BD002A8BD19B
:103DD000B6F5004F02D0FEF745F8D9E7FEF742F8F6
:103DE000E3E702F5F832D2F8902002F03002102A10
:103DF0001AD0EBD9202A2BD0302A7FF475AFB6F534
:103E0000004F36D060680022410801F50041B1FB47
:103E1000F0F189B2D7E702F59232D2F8902002F49D
:103E20004062B2F5806F38D1B6F5004F02D0FEF790
:103E300005F8ADE7FEF702F8B7E702F5F632D2F87B
:103E4000902002F0C002402AEED0BFD9802A2DD1A6
:103E5000B6F5004F13D161680022324800EB5100E3
:103E6000B0FBF1F0C0F3420120F00F00014389B232
:103E7000A9E761680022480800F58030F0E7606833
:103E80000022294901EB5001B1FBF0F189B2104643
:103E9000D960F8BD0021012295E77FF672AFB2F537
:103EA000006FD5D0B2F5406FA9D01DE7C02AA6D0CB
:103EB0001AE702F5E032D2F8902002F44052B2F54F
:103EC000805FB1D082D9B2F5005FC1D0B2F5405F5A
:103ED00095D009E702F5DE32D2F8902002F4404294
:103EE000B2F5804FA0D07FF671AFB2F5004FAFD0E2
:103EF000B2F5404F83D0F7E6F369FFEF00100140C1
:103F00000044004000480040004C00400050004089
:103F10000014014000780040007C0040003802405E
:103F200088CC00080048E8010024F400436ADA075E
:103F300010B406D50168846A4A6822F4003222432C
:103F40004A609C0706D50168C46A4A6822F4803238
:103F500022434A60590706D50168046B4A6822F477
:103F6000802222434A601A0706D50168446B4A68DA
:103F700022F4004222434A60DC0606D50168846BC5
:103F80008A6822F4805222438A60990606D5016825
:103F9000C46B8A6822F4005222438A605A060AD50A
:103FA0000168046C4A68B4F5801F22F4801242EA6A
:103FB00004024A600BD01B0606D50268816C536868
:103FC00023F400230B4353605DF8044B70474A68A9
:103FD000446C22F4C00222434A60ECE770B500252D
:103FE000044682B0C566FCF73BFB226812681307E3
:103FF0000AD400232022184684F8692084F8683007
:1040000084F86A2002B070BD6FF07E4603462A46EF
:104010004FF4001100962046FFF780FC0028E8D0FE
:10402000032002B070BD00BF90B390F8693010B5A6
:1040300003F0FF02044603B322682423204684F8D9
:104040006930136823F001031360FFF70DFE0128A8
:1040500018D0636AC3B9236820465A6822F4904294
:104060005A609A6822F02A029A601A6842F00102A5
:10407000BDE810401A60FFF7B1BF80F8682005F076
:1040800063FBD9E7012010BD2046FFF74FFFE2E7B1
:1040900001207047174A014641F28833126810B474
:1040A000154CA4FB0202520A03FB02F303E04A6B25
:1040B00012F0450F07D113F1FF33F8D24FF0004053
:1040C0005DF8044B70474B6B5B070ED4486B10F0E8
:1040D000010005D140F2FF535DF8044B8B6370473C
:1040E00001205DF8044B8863704704205DF8044BA1
:1040F0008863704710000020D34D6210134A0146B8
:1041000041F28833126810B4114CA4FB0202520A27
:1041100003FB02F303E04A6B12F0450F07D113F1E2
:10412000FF33F8D24FF000405DF8044B7047486B06
:1041300010F0040005D140F2FF535DF8044B8B638F
:10414000704704205DF8044B88637047100000201E
:10415000D34D62104E4B10B41B6883B04D4CA4FB82
:1041600003435B0A02FB03F2A2B1436B013A13F073
:10417000450FF9D0436B5A0719D4426B12F0010274
:104180000ED10369DBB2994218D0012003B05DF86B
:10419000044B70474FF0004003B05DF8044B70478C
:1041A00001238363184603B05DF8044B7047042372
:1041B0008363184603B05DF8044B704740F2FF5428
:1041C00000F11401344B846301920191019A126849
:1041D00013404BB3002A2BDB530027D494002AD47E
:1041E000D1002AD413012BD454012CD4D10130D4C2
:1041F00013022BD4540232D491022DD4D30237D4DB
:10420000540332D491033FD4D3033AD4140435D4A5
:10421000510430D4930425D412F0080F14BF4FF486
:1042200000004FF48030B7E71846B5E74020B3E709
:104230004FF00070B0E78020AEE74FF48070ABE73E
:104240004FF40070A8E74FF48060A5E74FF480506A
:10425000A2E74FF400609FE74FF480409CE74FF4E3
:10426000005099E74FF4800096E74FF4003093E751
:104270004FF4004090E74FF400108DE74FF48010AA
:104280008AE74FF4002087E74FF4802084E700BFDF
:1042900010000020D34D621008E0FFFD84B070B420
:1042A00004AE079C0546002086E80E000B46DDE9BB
:1042B00005211343089A0B43099923436C68134360
:1042C000034A0B43224013436B6070BC04B0704739
:1042D0000081FFFFD0F88000704700BF03460A68E6
:1042E0000020C3F8802070470346032200201A6094
:1042F000704700BF006800F003007047143082B0C0
:104300000023014401930191019B186802B070479A
:1043100030B402460C680020D1E902352B434D68C9
:1043200054620C69956223434D69D46A2B4324F08F
:10433000F7010B4330BCD362704700BF30B4064B6B
:1043400041F2883281601021C5682B4043F48A63B2
:1043500030BCC360FFF7FEBE00F0FFFF70B48160A9
:1043600040F25144C66841F28832044D1121354073
:104370002C43C46070BCFFF7EDBE00BF00F0FFFF30
:1043800070B4816040F25244C66841F28832044DF4
:10439000122135402C43C46070BCFFF7DBBE00BF68
:1043A00000F0FFFF30B4064B41F2883281601821E3
:1043B000C5682B4043F48B6330BCC360FFF7CABEB3
:1043C00000F0FFFF70B4816040F25944C66841F2CA
:1043D0008832044D192135402C43C46070BCFFF76E
:1043E000B9BE00BF00F0FFFF00220C2130B4826094
:1043F00040F24C44C268044D1540044A2C43C4604A
:1044000030BCFFF7A7BE00BF00F0FFFF00E1F505DD
:1044100070B4826040F24744C66841F28832044D6D
:10442000072135402C43C46070BCFFF793BE00BF2A
:1044300000F0FFFF134B01460022186841F2883359
:1044400010B4114C8A60A2F58052A4FB0040CC68E5
:104450002240400A42F4806203FB00F3CA6002E09B
:104460004A6B120607D413F1FF33F9D24FF0004024
:104470005DF8044B704740F2FF5300205DF8044B99
:104480008B63704710000020D34D62101C4B014617
:104490004FF4D572186841F2883310B4194C8A6011
:1044A000A4FB0040184ACC68400A224003FB00F3FA
:1044B00042F48962CA6003E04A6B12F0450F07D1EB
:1044C00013F1FF33F8D24FF000405DF8044B704712
:1044D000486B10F004000CD14B6B13F0400304D078
:1044E00040235DF8044B8B63704718465DF8044B1E
:1044F0007047402304205DF8044B8B63704700BF76
:1045000010000020D34D621000F0FFFF70B48160F6
:1045100040F27744C66841F28832044D3721354075
:104520002C43C46070BCFFF715BE00BF00F0FFFF56
:1045300030B4064D40F26942054C0D438560C168B8
:104540000C40224330BCC260FFF7D8BD0000108091
:1045500000F0FFFF10B40024054940F2C24284601D
:10456000C46821405DF8044B0A43C260FFF792BD66
:1045700000F0FFFF10B4816040F2C942C168044CF2
:104580000C4022435DF8044BC260FFF783BD00BFBF
:1045900000F0FFFF70B42C4B00242C4A83B08460E1
:1045A00040F24344C6681B68294DA2FB03233540F3
:1045B0005A0A41F288332C4303FB02F3C46003E040
:1045C000426B12F0450F07D113F1FF33F8D24FF0D1
:1045D000004003B070BC7047436B5C0711D4436B61
:1045E00013F0010307D10269D2B2032A0FD00120D0
:1045F00003B070BC704701238363184603B070BCDE
:10460000704704238363184603B070BC704700F101
:10461000140240F2FF54846301930192019B1B68D2
:1046200013F4604009D05A040AD413F4004F14BFA5
:104630004FF480504FF48030CBE71B0C0B80C8E761
:104640004FF40050C5E700BF10000020D34D6210AA
:1046500000F0FFFF70B4816040F24D44C66841F243
:104660008832044D0D2135402C43C46070BCFFF7E7
:1046700071BD00BF00F0FFFF0B4B01E0013B10D00C
:104680000269002AFADA0369074A43F00103036169
:1046900001E0013A05D0036913F00103F9D118468E
:1046A00070470320704700BF400D030084B038B549
:1046B0000A9D05AC012D84E80E00014622D1826BD3
:1046C000184B22F4803211988A630128CA6803EAE1
:1046D0000203CB60CB6823F44013CB601CD00846A8
:1046E000FFF7CAFF089B012B07D18B6843F0060335
:1046F0008B608B6843F020038B600020BDE838405E
:1047000004B07047C36843F04003C360FFF7B4FFD1
:104710004FF480338B63E5E7CB6843F48013CB60C1
:10472000DDE700BFBFFFBDFF02460020936823F016
:1047300001039360704700BF08B5C368012923F0E7
:10474000C043C3600BD041B9C36843F08043C3602A
:104750003220FBF78BFF002008BD012008BDC36895
:1047600043F00053C360F3E784B02DE9F043002425
:1047700008AE0B9DDDF834C0274686E80E00129E79
:104780000A9A04F14003013400EB83030F2C5F60AD
:10479000F7D1836B43F4001383635EB9836B23F417
:1047A00000138363036843F040030360036843F02E
:1047B000800303600023BCF1010F00F50067C0F81F
:1047C000003ED0F80038C0F80038D0F800383AD0B1
:1047D000BCF1030F37D043F00303C0F800384FF4A7
:1047E0008462464B026101E0013B02D002699406FB
:1047F000FAD41022414B026101E0013B02D0026970
:10480000D206FAD400223A617A61FA6111B300F556
:1048100010634FF090484FF0006994464FF67F3E8A
:1048200009E0C3F800C00132C3F810C0C3F808E0C3
:1048300020338A4233D01C68002CF2DA002A59D087
:10484000C3F80080EFE7002AC7D043F00103C0F8A7
:104850000038C4E73B69012D23F480733B613AD0F3
:1048600000226FF08043826143611DB9836943F088
:10487000100383618169224B0E9A0B4383611AB145
:10488000836943F008038361012E03D182691D4BC4
:10489000134383610020BDE8F04304B0704700215A
:1048A00000F530634FF090484FF000698C464FF6AA
:1048B0007F3E09E0C3F800C00131C3F810C0C3F85F
:1048C00008E020339142C5D01C68002CF2DA71B1A7
:1048D000C3F80080F0E70C4A00210C4B3A636FF0FC
:1048E00080423C6B23433B6381614261C2E7C3F872
:1048F0000090E1E7C3F8009095E700BF400D03008A
:1049000000383C80040000400001800003000100EA
:1049100000F50062032008B5536843F002035360BA
:10492000FBF7A4FE002008BD034B03EB8002034409
:104930005268187A53681847C0020020084B1A5C66
:104940005AB903EB8002191810B4012452681C54A0
:104950005DF8044B087A136818470020704700BFC1
:10496000C002002030B4054C04EB800504446D689F
:10497000207AAC68A44630BC604700BFC00200206B
:1049800030B4054C04EB800504446D68207AEC6873
:10499000A44630BC604700BFC0020020054B10B4E5
:1049A00003EB800403446468187A23695DF8044BC0
:1049B000184700BFC00200201D4A136830B4002B06
:1049C00033D004689C420ED00024136943B10568BB
:1049D000AB421CD0022903D014B9122030BC70475E
:1049E000002030BC7047546883689C42ECD19468C6
:1049F00043699C42E8D10023A1B902EB03129389D9
:104A0000B3F5807F30BC14BF00201020704755697B
:104A100083689D42DED1436990699842DAD10123CF
:104A20000029EAD0102030BC70470124CDE700BF38
:104A300098000020244BF0B41A68046894421AD0FD
:104A40001D69A54206D002B3002D34D000263046A1
:104A5000F0BC70475F698668B742F4D19F694669C8
:104A6000B742F0D1012215015819808931BB411C90
:104A7000561C8AB21AE086685D68AE42E0D146698B
:104A80009D68AE42DCD10022EDE701261501002928
:104A900082684FF0000703EB050140695C514A60F2
:104AA00014BF4FF48072012288608F812B443046FE
:104AB0009A81F0BC704702260122E7E70028C5D1A1
:104AC000561C4FF48072F1E798000020016829B36A
:104AD0000A4610B40C781F2C1BD93A2C02D118E0CE
:104AE0003A2B03D012F8013F1F2BF9D83A2B04D0F0
:104AF000002318465DF8044B704701318A420AD101
:104B0000302C08D1013200235DF8044B02601846B6
:104B100070472346EAE74FF0FF33EAE74FF0FF33F1
:104B200018467047D8B1036810B5044682B02BB15F
:104B30001A781AB1D888A288904204D0002309209C
:104B40000B6002B010BD58780191FFF7EDFE10F038
:104B500001000199F2D123680B6002B010BD00235F
:104B600009200B60704700BF01380A4411F8013B6F
:104B7000914200F8013FF9D1704700BFF8B5456B8D
:104B800000F138070446012340782A463946FFF7EA
:104B9000F7FEB0B9A26A236AAA1AE0709A420ED24E
:104BA000A678012E01D80AE0236A1D44013E0123A4
:104BB00039462A466078FFF7E3FE012EF4D1002043
:104BC000F8BD0120F8BD00BFF8B5C37804465BB955
:104BD0002378032B0FD0002260781146FFF7DEFE0A
:104BE000003018BF0120F8BDFFF7C8FF0028FAD138
:104BF0002378032BEFD12379012BECD104F1380179
:104C0000A28900250A440B4603F8015B9342FBD1BD
:104C1000A06955266369070A84F82002626A84F84D
:104C20002172070C000E84F8243284F822721F0AC5
:104C300084F82302180C1B0E013284F82602AA20E5
:104C400084F82572612784F82732522384F836626B
:104C5000412684F83702722084F8383084F83930DD
:104C6000012384F81C0284F81D02626384F83A7000
:104C700084F81F7284F83B6084F81E626078FFF746
:104C80007FFE2571A7E700BF38B5C37804460D46FF
:104C900013B1FFF773FF68B92A46012304F1380105
:104CA0006078FFF75FFE002816BF4FF0FF35002049
:104CB0000120656338BD00BF4FF0FF3300229942E9
:104CC00010B50446C270436334D194F837124AF6E3
:104CD000552294F8363243EA0123934228D194F8BE
:104CE0003830E92B05D0A36B174A03F0FF1393422A
:104CF00026D1B4F8701094F86F2094F86E3042EA20
:104D00000122124943EA022323F07F438B4219D048
:104D1000B4F88C2094F88B3094F88A0043EA02238C
:104D20000B4A40EA0320904214BF0220002010BD2D
:104D3000032010BDFFF7A8FF0028C6D0042010BD37
:104D4000022010BD002010BDEB0090004641540031
:104D50004641543300232DE9F0470B6084B00E46E2
:104D60001746FFF7B3FE051E38DBDFF8888308EB34
:104D700085031C6A002C39D0346007F0FE072378C5
:104D800063B16078FFF7D0FDC10707D497B310F087
:104D9000040020D00A2004B0BDE8F087E8B2002368
:104DA00060702370FFF7CAFDC2071BD40FB1430721
:104DB000F0D404F10C0202216078FFF7EFFD48B94E
:104DC000A389A3F50072B2F5606F03D8591E11EAEA
:104DD000030511D0012004B0BDE8F0870B2004B01A
:104DE000BDE8F087032004B0BDE8F0870C2004B0D4
:104DF000BDE8F0873846EEE729462046FFF75CFF1E
:104E0000022800F0B1800428E4D0012800F2CF800D
:104E100094F8441094F84330A28943EA01239A425B
:104E200040F0C58094F84F1094F84E3053EA0123B7
:104E300009D1B4F85E0094F85D3094F85C1043EA50
:104E4000002341EA032394F848002362411EA07026
:104E5000012900F2AC8094F845901FFA89F1618134
:104E6000002900F0A48009F1FF3111EA090F40F098
:104E70009E8094F84A60510994F849C04CEA062C87
:104E80000FFA8CFC1FFA8CFEBEFBF1F701FB17E159
:104E9000A4F808E089B2002940F0898094F84C60B9
:104EA00094F84B1051EA062109D1B4F85AA094F8AD
:104EB000591094F8586041EA0A2146EA012194F811
:104EC00047A094F8466056EA0A2670D003FB00F02B
:104ED00037440744B9426AD3C91BB1FBF9F1002931
:104EE00065D04FF6F57949456AD840F6F57906EB75
:104EF000050C2F448E1C494500F29680E66127631D
:104F0000C4E9095CBEF1000F51D006F00101551E45
:104F100006EB460660442944E06201EB5601B1FB12
:104F2000F2F2934243D34FF0FF33802101222171EB
:104F3000C4E90533B8F82430D8F8001001336A48C2
:104F40008C4222709BB22061A8F82430E38002D109
:104F50000023C8F80030D8F8103000209C427FF4BD
:104F60003AAFC8F8100036E76E4604F5007304F552
:104F70001075304613F8061C0A4641B11F8813F815
:104F8000011C13F8022C41EA072142EA01221033E6
:104F900040F8042BAB42EDD106F1100756F8045B44
:104FA000032035B9B742F9D104283FF413AF0D20DF
:104FB00011E729462046FFF77FFE0128F2D827E7B0
:104FC00094F863E0023194F862002E442F44E161CA
:104FD00040EA0E20A66227634CEA0000656200B238
:104FE0000028E4D1501EB4F8667094F8656000EBB8
:104FF000810194F8640046EA0726B1FBF2F240EA28
:1050000006209342E062D2D394F869004FF0FF3259
:1050100094F868308021A26143EA00236261217123
:10502000012B19D0032285E7E6612763C4E9095CF7
:10503000BEF1000FBBD0511E604401EB4606E0629A
:10504000B6FBF2F29A42B2D84FF0FF33802102222F
:105050002171C4E905336DE7691C636B99423CD14A
:1050600094F837124AF6552294F83632002043EA73
:10507000012320719342D5D1618F94F8392094F89F
:10508000383042EA0122194943EA02238B42C9D14E
:10509000B4F81E1294F81D2294F81C3242EA012240
:1050A000134943EA02238B42BCD194F82112032214
:1050B00094F82532B4F82252B4F8260241EA0525C4
:1050C00094F8201243EA002094F8243241EA0521A2
:1050D00043EA0023C4E905312CE72046FFF7D4FD5D
:1050E0000028BDD09EE700BFC000002052526141A1
:1050F00072724161980000202DE9F0410378044666
:105100000D461646022B69D0032B41D0012B02D04D
:105110000220BDE8F08101EB5107B0F80CC0816AB4
:10512000426BB7FBFCF31944914276D115F00105AF
:105130000CFB137304F1380807F101077ED018F84F
:105140000310320101F00F0102F0F0020A4308F8E7
:1051500003200123A089E370A16A626BB7FBF0F31F
:105160001944914207D02046FFF78EFD0028D0D188
:10517000A089B7FBF0F300FB1377002D60D0C6F3D6
:105180000716012308F807600020E370BDE8F081EE
:105190008789826AB908436BB5FBF1F111449942E2
:1051A00045D1AD0004F1380126F070464FF0010CF6
:1051B0000020B5FBF7F307FB13554B195A8812046F
:1051C00002F0704232434A55150A110C120E5D70FE
:1051D0009970DA7084F803C0BDE8F0818789826A2B
:1051E0007908436BB5FBF1F11144994204D0FFF704
:1051F0004BFD00288DD1A7896D0004F13803C6F35B
:1052000007210020B5FBF7F207FB12570122DE55FC
:105210003B445970E270BDE8F081FFF735FD00288E
:105220007FF477AFB4F80CC0B7FBFCF37EE7FFF771
:105230002BFD00287FF46DAFA789B2E7F2B286E7B5
:1052400018F80730C6F3032223F00F06164398E739
:10525000012934D9C36999422DE9F04104462BD282
:1052600003780D46022B46D0032B2AD0012B23D1E5
:1052700001EB51088289866AD0F834C0B8FBF2F39A
:105280009919614555D108F1010702FB1383B7FB5A
:10529000F2F081192344614593F8386053D102FB41
:1052A0001072EB07144494F8380046EA00204CBF13
:1052B0000009C0F30B0000E00120BDE8F0810120EF
:1052C00070478389866A9908426BB5FBF1F13144D6
:1052D000914229D1A9003834B1FBF3F503FB151134
:1052E0006218605C5378518843EA012340EA032046
:1052F00020F07040E1E78289866A5108436BB5FB74
:10530000F1F13144994203D0FFF7BEFC18BBA289EA
:1053100069003834B1FBF2F302FB13116318605CCF
:105320005B7840EA0320C8E7FFF7AEFC98B9A38991
:10533000D0E7FFF7A9FC70B9A289A66AD4F834C0F7
:10534000B8FBF2F39FE72046FFF79EFC18B9A2894D
:10535000B7FBF2F0A3E74FF0FF30AEE7B1F5001F67
:105360002BD2CA06F8B50C4625D1816805464461A2
:10537000066829BB3378022B01D9F36AFBB933895C
:10538000B3EB541F17D9F36AEB61A9619BB1B189E3
:1053900038360020B4FBF1F201FB124413443444CC
:1053A000C5E90734F8BDF369023B8A1E9A4220D34F
:1053B0000023C5E906130220F8BD022070471946F4
:1053C0007389B78907FB03F7BC42ECD3304607E08B
:1053D0000128F0D9F3698342EDD9A742E4D82868BF
:1053E000FFF736FF431C0146A4EB0704F0D1012070
:1053F000F8BD7389306B02FB0303EB61C5E700BFA7
:105400002DE9F04107468846066841BB7569F36996
:10541000F5B901252C4606E0012817D0431C15D00C
:10542000AC4219D0F36901349C4203D3012D4FF0F3
:10543000020411D921463868FFF70AFF0028EBD192
:10544000012C02D9F3699C421AD30120BDE8F081F6
:105450009D4228BF0125DDE70020BDE8F0813046F0
:10546000FFF7F6FE0128F0D9421C06D0F36983420B
:10547000ECD84546CEE70128E7D14FF0FF30E5E70D
:105480004FF0FF3221463046FFF736FE68B9B8F1DB
:10549000000F0AD0B8F1010FD7D9F3699845D4D2DB
:1054A000414622463046FFF727FE0028E3D17461CB
:1054B000D6E90623023B9A4201D8013AB261337918
:1054C000204643F001033371C0E700BF01293ED9F4
:1054D000F8B505680C460746EB698B422AD93ABBFA
:1054E00028461BE00128284624D0731C31D0012C0B
:1054F00020D9EB699C4234461CD2FFF7FDFDB0B9C0
:10550000D5E90623991E501C8A4204D22A79A86143
:1055100042F001022A71B34208D938682146FFF7E8
:1055200097FE2146064600220028DBD10020F8BD68
:10553000934201D80220F8BD012AFBD91146284622
:105540004FF0FF32FFF7D8FD0028E6D0F8BD02206B
:1055500070470120F8BD00BF2DE9F84F4569C269C9
:105560002035B5F5001F19D2C2B1066804460F46B2
:10557000B389B5FBF3F003FB10533BB90132A169CA
:10558000E26171B93289B2EB551F2ED906F13807A5
:105590003B44656100202362BDE8F88F0420BDE82C
:1055A000F88F7289013A0242F0D13046FFF750FE7F
:1055B000012880465FD9B0F1FF3F1ED0F3698342D6
:1055C0001DD906F13807A0F10209023BC4F8188082
:1055D0004B4552D97289336B09FB0232B389E261C0
:1055E000B5FBF3F203FB1253D2E700230420E3617F
:1055F000D5E73046FFF7C2FA90B10120CFE7002F80
:10560000F3D0A1692046FFF7FBFE8046002836D084
:10561000012830D0B0F1FF3FEFD0F378002BE8D174
:1056200006F13807B28900213A443B4603F8011BD2
:105630009342FBD1F369A8F1020971899A1E914541
:105640001FD2326B09FB0122726309B34FF0000BCA
:105650004FF0010A05E0726B738901325B4572639A
:1056600011D986F803A030460BF1010BFFF786FA3B
:105670000028F0D0C1E7022091E70022AEE7072022
:105680008DE70022E0E7F369A2EB0B0272639CE76F
:105690008B46F9E72DE9F04F002187B005460768F2
:1056A000FFF75CFE8246002845D14FF0FF334FF0F4
:1056B000FF0B9846D9462B630BE00F2B3FD04FF0E2
:1056C000FF09C5F8308000212846FFF745FF002874
:1056D0004CD1E9697B6B994204D03846FFF7D4FA84
:1056E000002843D12C6A2678002E5BD0E27AE52E82
:1056F00002F03F03AB71E2D01207DED40F2B1ED0B5
:10570000B9F1000F37D095F82F30DB07D7D42046FA
:105710002946013410F80B3B11F8242F9B1A002B5B
:10572000CDD114F8013B11F8012FA042A3EB0203E5
:10573000F5D1002BC3D1504607B0BDE8F08F95F8E6
:105740002F305806BFD4710627D56B6906F0BF0607
:1057500094F80DB02B63637B5B4529D04FF0FF09B4
:1057600000212846FFF7F8FE0028B2D082465046B6
:1057700007B0BDE8F08F04F10B0021464FEAC913D2
:1057800011F8012B43EA5909884252FA89F95FFA64
:1057900089F9F3D1CB45B6D1CDE7B145DBD04FF098
:1057A000FF09DDE74FF0040A504607B0BDE8F08F6F
:1057B000E27EA37E53EA0223D0D1217801223B6905
:1057C00001F03F00DFF8A0E01146049300F1FF3C38
:1057D0000596F1460CEB4C000CEB8000CDE900B7D0
:1057E000CDE902A51F462546044612E0FE2C3046B0
:1057F0001CD800F0C9FE824637F814005C4600F061
:10580000C3FE8245314611D1164B4B4515D019F8D0
:10581000012FA818AE5C04F1010B407846EA00267F
:105820000029E3D14FF6FF739E42EDD0DDE900B7CA
:10583000DDE902A54FF0FF0945E720462C46059E0D
:1058400022785206DDE900B7DDE902A500D519B9D5
:10585000013E5FFA86F936E7049B33F81030002BDF
:10586000F6D07BE7A8CC00089CCC00082DE9F04FCF
:105870000B7885B00F4606465C2BD0F800B001D0FF
:105880002F2B05D117F8013F2F2BFBD05C2BF9D024
:105890000021B16038781F2840F251815B460191A8
:1058A00080B21D691F282DD95C2831D02F282FD018
:1058B000A5F10209B84601240FE029F8020F631C84
:1058C00018F8010F1F2840F223812F2822D05C28CE
:1058D00020D0B3F5807F11D01C46012100F030FEAE
:1058E00060B17F28E9D8222808D02A23A64A03E0FD
:1058F00012F8013F002BE0D09842F9D1062005B004
:10590000BDE8F08F002306202B8005B0BDE8F08FA6
:1059100001230024FA5CF9182F2A02D05C2A40F0F7
:10592000198101333B441F4613F8012B2F2AFAD06B
:105930005C2AF8D0002CE5D04FF000096FF000434E
:10594000234435F8132005EB4303202A05D1013CFD
:10595000D8D033F8022D202AF9D02E2AF7D0019B77
:1059600005EB440206F12F00202125F8143006F142
:10597000240303F8011B8342FBD128882E2807D07B
:10598000A0F12003B3FA83F35B09002B00F0E08061
:105990002B464FF0000833F8020F08F101082028C9
:1059A000F9D02E28F7D049F00309134633F8022D19
:1059B0002E2A01D0013CF9D1082239464FF0000AC5
:1059C000374608F101082E46534615460A4668B187
:1059D000202803D02E2857D1444555D049F003093B
:1059E00036F8180008F101080028F1D13E461746A4
:1059F0002A4696F82410E52902D1052186F82410BC
:105A0000082A01D19B00DBB203F00C020C2A00F043
:105A1000838003F00303032B7ED019F0020F07D11C
:105A2000012B08BF49F01009042A08BF49F00809F2
:105A300086F82F903046FFF72DFE96F82F3000287D
:105A400075D15A073FF55BAFB379DB0640F18D8026
:105A5000BBF80C100BF1380370699BF80040B0FBE9
:105A6000F1F201FB1202032C1344D97E9A7E42EA22
:105A7000012205D1597D1B7D43EA012342EA0342FD
:105A8000B260336838780BE7AA451AD2A4EB080154
:105A9000B1FA81F14909A1B97F2820D82B282DD04E
:105AA0002C21DFF8ECC0814228D01CF8011F00290E
:105AB000F9D1A0F1410119294ED843F00203C0B237
:105AC0001FE00B2D53D0444502D049F003098DD37C
:105AD0009B00A0460B254FF0080ADBB280E7CDE91A
