:020000040800F2
:1000000000000820555400085553000859530008B3
:100010005D530008615300086553000800000000AC
:10002000000000000000000000000000695300080C
:100030006D5300080000000071530008755300085C
:10004000A5540008A5540008A5540008A5540008AC
:10005000A5540008A554000885530008A5540008BD
:10006000A5540008A5540008A5540008A55400088C
:10007000A5540008A5540008A5540008A55400087C
:100080008D53000899530008A5530008A554000893
:10009000A5540008A5540008A5540008A55400085C
:1000A000A5540008A5540008A5540008A55400084C
:1000B000A5540008A5540008A5540008A55400083C
:1000C000A5540008A5540008A5540008A55400082C
:1000D000A5540008A5540008A5540008C9530008F9
:1000E000A5540008A5540008A5540008A55400080C
:1000F000A5540008A5540008A5540008A5540008FC
:10010000A5540008A5540008D5530008A5540008BC
:10011000A5540008A5540008A5540008E1530008A0
:10012000ED530008A5540008F9530008A554000831
:10013000A5540008A5540008A5540008A5540008BB
:10014000A5540008A5540008A5540008A5540008AB
:10015000A5540008A5540008A5540008A55400089B
:10016000A5540008A5540008A5540008A55400088B
:10017000A5540008A5540008A5540008A55400087B
:10018000A5540008A5540008A5540008A55400086B
:10019000A5540008A5540008A5540008A55400085B
:1001A000A5540008A5540008A5540008A55400084B
:1001B000A5540008A5540008A5540008A55400083B
:1001C000A5540008A554000800000000A55400082C
:1001D000A5540008A5540008A5540008A55400081B
:1001E000A5540008A5540008A5540008A55400080B
:0801F000A5540008A554000805
:1001F80010B5054C237833B9044B13B10448AFF359
:1002080000800123237010BD1000002000000000B2
:10021800F054000808B5034B1BB103490348AFF37A
:10022800008008BD0000000014000020F054000801
:1002380053B94AB9002908BF00281CBF4FF0FF3145
:100248004FF0FF3000F072B9ADF1080C6DE904CE43
:1002580000F006F8DDF804E0DDE9022304B0704799
:100268002DE9F047089E04468846002B4BD18A4268
:10027800154667D9B2FA82F24AB1C2F1200701FAEB
:1002880002F320FA07F7954047EA030894404FEA3B
:10029800154E230CB8FBFEF71FFA85FC0EFB1788DA
:1002A80043EA084307FB0CF1994209D9EB1807F117
:1002B800FF3080F01B81994240F21881023F2B44A5
:1002C8005B1AA4B2B3FBFEF00EFB103344EA0344FE
:1002D80000FB0CFCA44509D92C1900F1FF3380F070
:1002E8000781A44540F2048102382C4440EA0740C3
:1002F800A4EB0C0400271EB1D4400023C6E9004338
:100308003946BDE8F0878B4209D9002E00F0EB8012
:100318000027C6E9000138463946BDE8F087B3FA38
:1003280083F7002F47D18B4202D3824200F2FA8032
:10033800841A61EB030301209846002EE0D0C6E939
:100348000048DDE702B9FFDEB2FA82F2002A40F087
:100358008F80491B4FEA154E1FFA85F80127B1FB1C
:10036800FEFC230C0EFB1C1143EA014308FB0CF1B5
:10037800994207D9EB180CF1FF3002D2994200F2EA
:10038800CD808446591AA3B2B1FBFEF00EFB1014BF
:1003980043EA044408FB00F8A04507D92C1900F1EA
:1003A800FF3302D2A04500F2B6801846A4EB080439
:1003B80040EA0C409FE7C7F1200CBB4022FA0CFE34
:1003C8004EEA030E01FA07F420FA0CF521FA0CF3B1
:1003D8004FEA1E482543B3FBF8F92C0C08FB1933E8
:1003E8001FFA8EFA44EA034309FB0AF49C4202FA14
:1003F80007F200FA07F10BD91EEB030309F1FF30EE
:1004080080F087809C4240F28480A9F102097344FD
:100418001B1BADB2B3FBF8F008FB103345EA0344ED
:1004280000FB0AFAA24508D91EEB040400F1FF33C9
:100438006BD2A24569D90238744440EA0940A0FB4E
:100448000289A4EB0A044C45C2464B4654D351D00A
:10045800002E69D0B1EB0A0564EB030404FA0CFC26
:10046800FD40FC404CEA0505C6E90054002747E773
:10047800C2F1200320FA03F7954001FA02F021FAAD
:1004880003F34FEA154E3843010CB3FBFEF71FFA8E
:1004980085F80EFB173341EA034107FB08F38B424B
:1004A80004FA02F407D9691807F1FF3C2FD28B42EE
:1004B8002DD9023F2944CB1A81B2B3FBFEF00EFBC3
:1004C800103341EA034100FB08F38B4207D969184E
:1004D80000F1FF3C17D28B4215D902382944C91ABA
:1004E80040EA07473BE73746304609E70746E7E66D
:1004F8001846FBE64145ABD2B8EB020A69EB0E029F
:1005080001381346A4E76046E9E7184695E76746C9
:10051800D1E781467CE702382C4447E7ACF1020C6E
:100528002B442FE7384608E73746E9E6704700BF0F
:1005380038B50D4C4FF47A730C4905462278086893
:10054800B3FBF2F3B0FBF3F000F0A0FA08B90F2DFB
:1005580001D9012038BD002229464FF0FF3000F0B4
:1005680053FA6560002038BD000000200C00002010
:1005780008B5032000F034FA0020FFF7D9FF04F093
:1005880007FB002008BD00BF034A044B11681B7815
:100598000B441360704700BF3800002000000020A3
:1005A800014B1868704700BF3800002038B5044672
:1005B800FFF7F6FF0546631C02D0044B1B781C446A
:1005C800FFF7EEFF401BA042FAD338BD0000002021
:1005D800002800F09180F8B5036C0446002B00F069
:1005E8008180236CDB0604D50023012084F83C308D
:1005F800F8BD236C4D4A4E491A4023684D4D42F0D0
:10060800020222644A6822F440324A604A686068FA
:1006180002434A605A68216922F48072D4F808C0FB
:10062800E7685A605868A66A40EA0120AE425860F6
:10063800586820F040705860596841EA0C015960C8
:10064800996821F4006199609A6842EA07029A6001
:1006580054D09968E06A21F0706199609A681643ED
:100668009E60996821F0405199609A6802439A60A7
:100678009968A56921F00201206A99609A6842EA9E
:1006880045029A60002842D15A6822F400625A60F2
:10069800D86A0026E56920F47000D4F830C06A1ED4
:1006A8006769D8623046DD6A45EA0255DD629D68B1
:1006B80025F400759D60996841EA4C219960996814
:1006C80021F4806199609A6842EA87229A60666498
:1006D800236C23F0030343F001032364002384F80D
:1006E8003C30F8BD436480F83C3004F099FA236C40
:1006F800DB063FF579AF7CE7012070479A6822F066
:1007080070629A609A6822F040529A60B0E758681E
:10071800626A40F40060511E58605A6822F46042D0
:100728005A605A6842EA41325A60B1E7FDEEFFFF6B
:10073800002301400100000F704700BF704700BF51
:10074800704700BF38B5036804461A6859689007AF
:1007580013D58A0611D5226CD50603D4226C42F42F
:10076800007222649A6812F0405F58D02046FFF762
:10077800E3FF23686FF012021A601A68596852077B
:1007880013D50D0611D5226CD00603D4226C42F481
:10079800005222649A6812F4401F22D0204600F0CA
:1007A8001DF923686FF00C021A6019685A68500620
:1007B80004D5CA0702D51A68D5074AD41A685968F1
:1007C80090060DD54A010BD5626C6FF020052046C6
:1007D80042F0020262641D60FFF7B2FF23681D60E9
:1007E80038BD9A6B12F4401F3FD15A685205D5D4D0
:1007F8009A6812F0405FD1D1A269002ACED15A6816
:1008080022F080025A60236C23F480532364236C03
:10081800DD05C3D4236C43F001032364BEE7A2695A
:10082800002AA3D1DA6A12F4700F02D09A68500530
:100838009CD45A6822F020025A60236C23F48073F7
:100848002364236CD90491D4236C43F001032364FB
:100858008CE7236C204643F480332364FFF76EFF54
:1008680023686FF001021A60A8E79A68510595D4C9
:10087800BBE700BF90F83C300022F0B5012B83B0F5
:10088800019200F09A800D6801220368092D80F812
:100898003C20AFB28A6828D805EB45064FF0070C14
:1008A8001C690CFA06FC02FA06F624EA0C041C6120
:1008B8001A6916431E614E68062E06EB86022DD86D
:1008C800053A1F24596B944007FA02F221EA040101
:1008D8005963596B0A435A633C4A934230D0002308
:1008E80080F83C30184603B0F0BD07EB47064FF0E0
:1008F800070CDC681E3EDFF8D8E00CFA06FC7545EC
:1009080024EA0C04DC605BD002FA06F6DA681643C7
:10091800DE604E68062E06EB8602D1D90C2E37D83B
:10092800A2F123041F26196BA64007FA04F221EA54
:10093800060119631C6B1443244A93421C63CED1ED
:10094800122D33D0224B9D4201D0112DC7D1214AFF
:100958001F4953688D4243F400035360BFD102F12D
:1009680046721D4B02F52E321B6802F28332A2FB3F
:1009780003239B0C03EB83035B000193019B002B78
:10098800ADD0019B013B0193019B002BF9D1A6E758
:10099800A2F141011F26DC6A8E4007FA01F224EA1F
:1009A8000604DC62D96A0A43DA6295E7D2F80433AE
:1009B80043F48003C2F8043391E7022003B0F0BD8A
:1009C800DE6846EA0266DE6075E700BF0020014087
:1009D80012000010002301400C000020704700BFE7
:1009E80007490002074BCA6800F4E06010B44FF6EC
:1009F800FF0422405DF8044B13431843C860704756
:100A080000ED00E00000FA05174BDB68C3F3022392
:100A180030B4C3F107051C1D042D28BF0425062C7E
:100A280018D9033B4FF0FF349C4022EA04044FF0EE
:100A3800FF32002802FA05F221EA020101FA03F264
:100A480042EA04024FEA0212D2B206DB074B1A54FA
:100A580030BC704700242346E9E700F00F00044B40
:100A68001A5430BC704700BF00ED00E000E400E01D
:100A780014ED00E000F01F010123034A40098B40F8
:100A880042F82030704700BF00E100E00138B0F1C3
:100A9800807F0DD2074B0022072130B4F025064C89
:100AA8005860104684F823509A60196030BC70472B
:100AB8000120704710E000E000ED00E0044A04283F
:100AC80013680CBF43F0040323F00403136070475A
:100AD80010E000E0704700BF08B5FFF7FBFF08BD56
:100AE80000283CD0437F70B503F0FF020446FBB1F9
:100AF8000222237962771BBB23681A4A5A619A68D3
:100B080022F018029A60627922BB4FF0FF321A6114
:100B1800996801256269002021F06001A6691143E6
:100B280099609A6822F0800232439A60657770BDB6
:100B3800027704F023F9022223796277002BDBD0B5
:100B4800E2682046A16800F00FF830B9627923689E
:100B5800002ADAD022691A61DAE7012070BD012083
:100B6800704700BFB71DC10410B41F2302E013F182
:100B7800FF3314D321FA03F4E407F8D5102A1ED062
:100B8800182A16D0082A17D0046800206161A368C3
:100B980023F018031A43A2605DF8044B7047102A2B
:100BA80003D0182A01D0082AEED101205DF8044BA1
:100BB8007047062BE8D9F8E70F2BE5D9F5E7072B9F
:100BC800E2D9F2E7E8B138B590F83D30044603F0D1
:100BD800FF028BB161680023A26802200A4D0A4314
:100BE800012184F83D0018462A60A38584F8311055
:100BF800E38584F83D1038BD80F83C2004F0D4F833
:100C0800E8E70120704700BF0000065088B103796B
:100C180010B503F0FF0204463BB100230221012274
:100C2800217118462361227110BD427104F0D2F877
:100C3800F3E70120704700BF4379012B1DD070B442
:100C4800D1E900310468022640F6FE750B430671AF
:100C5800C02105FA02F625689340914025EA060569
:100C680001262B4300252360226822EA0102226024
:100C780006714571284670BC7047022318467047B4
:100C8800F8B50446FFF78CFC002C53D002222368E9
:100C98000021054684F835201A6884F8341022F0BB
:100CA80001021A6005E0FFF77BFC401B05283AD8D3
:100CB80023681A68D107F6D4D4E90120E168024311
:100CC8001F68D4E904050A430243206AD4E906618F
:100CD8002A43354D32433D400A43616A02430429A1
:100CE80042EA050228D01A605A6922F00702114325
:100CF800DAB22E4D5961103A2D492E48A5FB025201
:100D08001940012513090022C05C032B4FF03F0353
:100D180088BF0431E06583401046A1658B60626539
:100D280084F83550F8BD032320221846626584F8FC
:100D38003530F8BD0120F8BDD4E90B51A76A45EA62
:100D4800010047F0040102431A605A6922F00702C1
:100D58001143002DCCD07EB1B6F5005F16D0022F1E
:100D680003D9032FC4D1EA01C2D501234022184672
:100D7800626584F83530F8BD012F03D0F3D3022F14
:100D8800B6D1F0E7B5F1C07FB2D1EEE7032FAFD807
:100D980001A252F827F000BF730D00086F0D00087C
:100DA800730D00088D0D00083F8010E0ABAAAAAAB9
:100DB80000FCFFFF0855000890F835200346022A7A
:100DC80003D0802201205A6570470268052100205F
:100DD80083F83510136823F001031360704700BFD0
:100DE800F0B5044683B000200822664901900E68D9
:100DF800D4E916739A403D682A4203D021680868EE
:100E0800400759D401229A402A4203D021684969EF
:100E1800080674D404229A402A4203D0216809683B
:100E2800890766D410229A402A4203D021680868AC
:100E380000074BD420229A402A4214D0216808681F
:100E4800C00610D5BA6094F83520052A63D00B681F
:100E580013F4802F0B687ED0190340F18980E36B6F
:100E68000BB120469847636D23B3636DDA071AD533
:100E780022680521444B84F83510A3FB0636136815
:100E880023F00103B60A136002E01368DB0704D5F8
:100E9800019B0133B3420193F7D90022012384F85F
:100EA800342084F83530E36C23B1204603B0BDE824
:100EB800F040184703B0F0BD086820F0040008604F
:100EC800BA60626D42F0010262659BE7BA600A6827
:100ED80012F4802F0A6818D1D20503D40A6822F0C8
:100EE80008020A60226C002AA4D020469047E36DCD
:100EF800A0E7BA60626D42F00402626592E7BA60E8
:100F0800626D42F00202626584E71103EAD5A26CC1
:100F1800002AEAD18EE70A68206C22F016020A60DD
:100F28004A6922F080024A6138B30A6822F008024E
:100F38000A603F220020012102FA03F3226DBB6000
:100F480084F8340084F83510002AB3D0204603B062
:100F5800BDE8F040104713F4807380D10A6801207F
:100F680022F010020A6084F8343084F8350076E7FD
:100F7800636C002B7FF475AF75E7A26C002AD4D19F
:100F8800D7E700BF0C000020B5814E1B2DE9F04FBC
:100F9800DFF82CC283B08E460025DFF82892D1F8FE
:100FA800008003E00135102D00F0B6800123AB402E
:100FB80008EA03018B42F5D1DEF8044024F010075B
:100FC800022F40F0AC80EF0805F0070A4FF00F0B36
:100FD800DEF8102000EB87074FEA8A0A3E6A0BFA10
:100FE8000AFB02FA0AF24FEA450A26EA0B064FF014
:100FF800030B32430BFA0AFB04F003063A626FEA6A
:101008000B02076806FA0AF617403E430660866830
:10101800C4F3001706EA020BDEF80C60AF4006FACC
:101028000AF646EA0B068660466826EA03031F436B
:101038004760C668E700DEF8083002EA060203FAED
:101048000AF343EA0203C360ACD5D9F8446025F03B
:10105800030705F003030F2246F4804607F1804793
:101068009B00C9F8446007F59C37D9F8446002FA38
:1010780003FA06F480460196484E019AB042BA68CF
:1010880022EA0A0220D006F58066B0425ED0444EBD
:10109800B04260D0434EB04262D0434EB04264D0BA
:1010A800424EB0426BD0424EB0426DD0414EB0423B
:1010B80060D0414EB0426CD0404EB0420CBF0926C1
:1010C8000A2606FA03F31A43BA60E603DCF800308E
:1010D8006FEA010205F1010554BF13400B43A70352
:1010E800CCF80030DCF8043054BF13400B43E60260
:1010F800CCF80430DCF8083054BF13400B43A4028A
:10110800CCF80830DCF80C3054BF13400B43102DDA
:10111800CCF80C307FF44AAF03B0BDE8F08F4FEA4B
:10112800450A0322D0F800B0013F04EA020602FA99
:101138000AF2012F6FEA020206FA0AF602EA0B0B1C
:1011480046EA0B0606603FF674AF60E7012606FA2A
:1011580003F31A43B8E7022606FA03F31A43B3E780
:10116800032606FA03F31A43AEE7042606FA03F346
:101178001A43A9E7072606FA03F31A43A4E7052644
:1011880006FA03F31A439FE7062606FA03F31A43FF
:101198009AE7082606FA03F31A4395E70000024087
:1011A80000080240000C02400010024000140240F7
:1011B80000180240001C02400020024000240240A7
:1011C800003C01400038024002B9090481617047BF
:1011D800704700BF044A5169014200D1704708B501
:1011E8005061FFF7F5FF08BD003C0140F0B138B58C
:1011F80090F82930044603F0FF0293B100230C490C
:1012080002202568012284F829001846A361636139
:10121800E3610B682B430B6084F8292084F82120B4
:1012280038BD80F8282003F021FEE7E70120704749
:101238000004065000284DD0F8B590F84130044617
:1012480003F0FF02002B40D02421E568D4E90032E6
:1012580084F84110012D186822F07061A26820F00E
:10126800010018601961996821F40041996028D03B
:1012780042F40442022D9A6002D14FF400625A608F
:101288005A68002114482027A6691043D4E9042588
:1012980058602A43D868E56942EA0622266A20F49B
:1012A80000403543D8600846DA601D601A6842F08D
:1012B80001021A60616484F84170216384F8421065
:1012C800F8BD42F400429A60DAE780F8402003F063
:1012D800DDFDB9E7012070470080000290F8413039
:1012E800DBB2202B70B41FD190F84020012A1BD00C
:1012F80002682424002680F841401568344625F009
:1013080001051560156825F4805515601568294391
:101318001160116841F00101116080F8406080F8A7
:101328004130204670BC70470224204670BC70478C
:1013380090F84130DBB2202B70B41ED190F84020D9
:10134800012A1AD002682424002680F84140146833
:10135800354624F001041460146824F4706444EAE7
:1013680001211160116841F00101116080F84060AD
:1013780080F84130284670BC70470225284670BC6A
:10138800704700BF002873D090F8BD33F0B503F064
:10139800FF028BB00646002B65D003233546306824
:1013A8006C4686F8BD33371D02F0AAFD55F810EBE0
:1013B800AC46BCE80F000FC4BCE80F000FC49CE8A3
:1013C800030084E803007046012497E80E0002F049
:1013D80059FD0021306802F09BFD0021324633465A
:1013E800084683F83C10A3F84210013183F83D40C9
:1013F8000F2983F83F001865C3E9110003F11C03A6
:10140800EFD100231C4682F8FC31013382F8FD41FC
:101418001C320F2B82F8E341C2F8E841C2F8EC41D4
:10142800C2F8F441EFD10FCDEC46D6F800E0ACE8B5
:101438000F000FCDACE80F0095E803008CE803001F
:10144800704697E80E0002F07BFD0122736A86F869
:101458003840934286F8BD230CD0306802F044FE31
:1014680000200BB0F0BD80F8BC2303F03FFF94E7E9
:1014780001207047304600F001F8EEE703680121CB
:10148800084A30B4C0F8F81304469969002541F0B9
:10149800006184F8F05328469961596D0A4330BCBD
:1014A8005A657047030000101B4A1C4B116C41F031
:1014B800805130B5116483B0126C1C4602F0805222
:1014C8000192019A1A6842F480321A60FFF768F8AC
:1014D800054605E0FFF764F8401BB0F57A7F17D89A
:1014E8006368DA03F6D523680C4D43F400332360B0
:1014F800FFF756F8044605E0FFF752F8001BB0F571
:101508007A7F05D86B689B03F6D5002003B030BD01
:10151800032003B030BD00BF003802400070004017
:101528000D490E484A6808B54B6802F03F02496801
:1015380013F48003C1F3881118BF0023A1FB000135
:10154800FEF776FE044B5B68C3F3014301335B008F
:10155800B0FBF3F008BD00BF003802400024F400DF
:10156800002800F0348103682DE9F041DD0782B0DE
:10157800044635D5AB498A6802F00C02042A00F00B
:10158800FE808A6802F00C02082A00F0F480636882
:10159800B3F5803F10D0002B00F01B81B3F5A02FCE
:1015A800A04B1A6800F0628122F480321A601A682F
:1015B80022F480221A6004E09A4A136843F48033C4
:1015C8001360FEF7EDFF974D064605E0FEF7E8FFCE
:1015D800801B642800F2EE802B689A03F6D52368F6
:1015E8009F0742D41A0717D56369002B00F0B08013
:1015F8008C4B5A6F1D4642F001025A67FEF7D0FF26
:10160800064605E0FEF7CCFF801B022800F2D280D8
:101618006B6F9B07F6D523685D076BD5814B1A6CFA
:10162800D00000F1ED801A6C012542F080521A6456
:101638001B6C03F080530193019B7B4B1A68D10507
:1016480040F1A780A368012B39D0002B00F0DA8085
:10165800052B744B1A6F00F0118122F001021A67F2
:101668001A6F22F004021A672EE06E4A916811F090
:101678000C0F62D0916801F00C0108295AD0E36878
:10168800002B00F0DF80674B1A681D4642F001020C
:101698001A60FEF785FF064605E0FEF781FF801B0E
:1016A800022800F287802B689807F6D52B682269F4
:1016B80023F0F80343EAC2032B60236892E7594AF0
:1016C800136F43F001031367FEF76AFF554E804618
:1016D80041F2883705E0FEF763FFA0EB0800B84247
:1016E80068D8336F9B07F6D525B14E4A136C23F0A3
:1016F80080531364A369CBB14A4A916801F00C0185
:10170800082921D0022B136800F0C08023F08073D1
:1017180014461360FEF744FF054604E0FEF740FF59
:10172800401B022846D823689B01F7D4002002B04A
:10173800BDE8F08152685602A1D43A4A126895076A
:101748003CD5E268012A39D0012002B0BDE8F08119
:10175800344B5A6F1D4622F001025A67FEF720FFEC
:10176800064604E0FEF71CFF801B022822D86B6F98
:101778009F07F7D44FE74A6850027FF508AF294A18
:10178800126891037FF52CAF6268002A7FF428AFB6
:10179800DAE71A681E4642F480721A60FEF700FF04
:1017A80007463368DA053FF54DAFFEF7F9FEC01B73
:1017B8006428F6D9032002B0BDE8F08119492069F0
:1017C8000A6822F0F80242EAC0020A600AE7012029
:1017D8007047144B1A681D4622F480321A601A6842
:1017E80022F480221A60FEF7DBFE064604E0FEF7CC
:1017F800D7FE801B6428DDD82B689B03F7D4EEE660
:1018080000251AE7074B41F288381A6F1E4622F066
:1018180001021A671A6F22F004021A67FEF7C0FE67
:10182800074608E00038024000700040FEF7B8FEA6
:10183800C01B4045BED8336F9807F7D4002D3FF43E
:1018480059AF52E72C4B1A681D4622F001021A6064
:10185800FEF7A6FE064604E0FEF7A2FE801B02285D
:10186800A8D82B689907F7D42368BBE642F48022EE
:101878001A601A6842F480321A60A2E642F0040242
:101888001A671A6F42F001021A671DE723F0807386
:1018980015461360FEF784FE064604E0FEF780FE58
:1018A800801B022886D82B689901F7D4D4E907321F
:1018B800616A1343D4E90A2043EA8113216B520871
:1018C8000D4C43EA0063013A43EA017343EA0243D9
:1018D8006B602B6843F080732B60FEF761FE054652
:1018E80005E0FEF75DFE401B02283FF663AF236864
:1018F8009A01F6D51AE700BF0038024078B14E4A7F
:10190800136803F00F038B420BD2136823F00F0305
:101918000B431360136803F00F038B4201D00120BF
:10192800704703682DE9F0419D0714D55C0704D57D
:10193800424CA26842F4E052A2601A0704D53F4C18
:10194800A26842F46042A2603C4C8568A26822F01A
:10195800F0022A43A260DF0704460D4621D54268FB
:10196800364B012A1B685ED0022A61D0990728D518
:10197800324941F288388B680E4623F0030313433B
:101988008B60FEF70DFE074604E0FEF709FEC01B5C
:1019980040454BD8B368626803F00C03B3EB820F81
:1019A800F3D1254A136803F00F03AB420CD913682F
:1019B80023F00F032B431360136803F00F03AB42AC
:1019C80002D00120BDE8F08123685A0706D51B49DB
:1019D800E0688A6822F4E05202438A601B0707D550
:1019E800164A2169936823F4604343EAC10393606C
:1019F800124B9B6803F00C03082B10D0104A0F4BB6
:101A08000020104C9B681049C3F30313E35C22FACF
:101A180003F30B60FEF78CFD0020BDE8F081FFF7B3
:101A28007FFD0246EBE79E03A2D4CAE70320C9E77D
:101A380098019DD4C5E700BF003C02400038024031
:101A48000024F400685500080C000020044B9B6833
:101A580003F00C03082B01D002487047FFF760BD64
:101A6800003802400024F400014B1868704700BF9A
:101A78000C000020044B054A9B680549C3F38223E8
:101A88000868D35CD8407047003802407855000891
:101A98000C000020044B054A9B680549C3F34233F8
:101AA8000868D35CD8407047003802407855000871
:101AB8000C00002003682DE9F04313F0010683B001
:101AC80004460BD09F4A916821F400019160466B4F
:101AD80091683143B6FA86F67609916013F40025C9
:101AE80010D09849E56BD1F88C20B5F5801F22F409
:101AF800401242EA0502C1F88C2000F0D481B5FA00
:101B080085F56D09D90210D58E48216CD0F88C2046
:101B1800B1F5800F22F4400242EA0102C0F88C209D
:101B280000F0BF81002908BF012513F0807F18BF8E
:101B380001269A0600F16D81DA060CD5814AD2F8A1
:101B48008C1021F08071C2F88C10D2F88C10A06B28
:101B58000143C2F88C105F0408D57A49606ED1F849
:101B6800902022F440320243C1F89020180408D58E
:101B78007449A06ED1F8902022F440220243C1F8A3
:101B88009020D90308D56F49E06ED1F8902022F44F
:101B980040120243C1F890209A0308D56949206F82
:101BA800D1F8902022F440020243C1F890205F0649
:101BB80008D56449606CD1F8902022F003020243F2
:101BC800C1F89020180608D55E49A06CD1F890207D
:101BD80022F00C020243C1F89020D90508D55949D2
:101BE800E06CD1F8902022F030020243C1F8902036
:101BF8009A0508D55349206DD1F8902022F0C002EB
:101C08000243C1F890205F0508D54E49606DD1F8B0
:101C1800902022F440720243C1F89020180508D59C
:101C28004849A06DD1F8902022F440620243C1F8DF
:101C38009020D90408D54349E06DD1F8902022F4CA
:101C480040520243C1F890209A0408D53D49206EBD
:101C5800D1F8902022F440420243C1F890205F025C
:101C680008D53849A06FD1F8902022F0806202434D
:101C7800C1F8902098020CD53249E06FD1F8902035
:101C8800B0F1006F22F0006208BF01250243C1F8DD
:101C9800902013F0080F18BF0125590308D52949CA
:101CA800606FD1F8902022F040720243C1F8902072
:101CB8001A0209D52349D4F88000D1F8902022F0DF
:101CC80080520243C1F890205F0109D51D49D4F81C
:101CD8008400D1F8902022F000520243C1F89020ED
:101CE800180109D51749D4F88800D1F88C2022F0BA
:101CF80000720243C1F88C20D9000BD4B3F1007FE5
:101D080016D0F20714D4012D00F0D080002003B0C3
:101D1800BDE8F0830B49B3F1007FD4F88C00D1F80B
:101D28008C2022F0806242EA0002C1F88C20E8D1BF
:101D3800044B1A681E4622F080621A60FEF730FCD7
:101D4800074606E000380240FEF72AFCC01B64285C
:101D58005BD833681B01F7D42368DF0712D5626BA1
:101D680082B9D6F88420D6F8847002F440326068CC
:101D780007F07067A1683A4342EA801242EA0172AA
:101D8800C6F884201E0300F10F81D80204D5226C06
:101D9800B2F5800F00F00D81D90111D5A44E60680D
:101DA800D6F88420D6F8847002F07062216907F0B2
:101DB800E0473A4342EA801242EA0142C6F88420E8
:101DC8009A010DD5236962681B04D4E9021043EA1D
:101DD8008213974A43EA006343EA0173C2F88430E6
:101DE800934B1A681E4642F080621A60FEF7D8FBD1
:101DF800074604E0FEF7D4FBC01B642805D8336807
:101E08001B01F7D5012D81D150E0032003B0BDE8B7
:101E1800F083874A874B116C1F4641F0805111644B
:101E2800126C02F080520192019A1A6842F4807290
:101E38001A60FEF7B5FB804605E0FEF7B1FBA0EBA4
:101E480008006428E1D83B68DB05F6D5784A236B9F
:101E5800116F03F4407011F4407111D088420FD013
:101E6800116F176F21F4407147F480371767176FA8
:101E780027F4803717671167116FCF0700F1C38008
:101E8800B0F5407F00F0B18069498A6822F4F81201
:101E98008A60674AC3F30B03116F0B431367236808
:101EA8004AE6012641E6002501262BE6604B1A6822
:101EB8001D4622F080521A60FEF772FB064604E0C7
:101EC800FEF76EFB801B64289FD82B689F00F7D411
:101ED80023681D0300F19280D8021DD5226CDAB95F
:101EE80053496569D1F88820D1F8886002F44032F6
:101EF800A06906F0E046324342EA851242EA0062EF
:101F0800C1F88820D1F88C20A06A22F4F852013850
:101F180042EA0022C1F88C20990215D5E26FB2F18D
:101F2800006F11D142496569D1F88820D1F88860DD
:101F380002F07062206A06F0E046324342EA8512F7
:101F480042EA0042C1F888201A0719D5384A65695B
:101F5800D2F88810D2F8883001F07061E06903F493
:101F680040330B4343EA851343EA0073C2F88830D1
:101F7800D2F88C30E16A23F440330B43C2F88C303A
:101F88002B4B1A681C4642F080521A60FEF708FB79
:101F9800054605E0FEF704FB401B64283FF635AF15
:101FA80023689B00F6D5B1E6E26BB2F5801F7FF49B
:101FB800ECAE1F4E6068D6F88420D6F8847002F420
:101FC8004032E16807F0E0473A4342EA801242EAC9
:101FD8000162C6F88420D6F88C10626A21F01F01CD
:101FE800013A0A43C6F88C20D6E61148124982689D
:101FF800194022F4F8120A4382604AE7E26B002A89
:102008003FF46EAF68E7174641F28838FEF7C8FA22
:10201800814606E0FEF7C4FAA0EB090040453FF60A
:10202800F4AE3B6F9907F5D5236B03F4407027E7AF
:102038000038024000700040FFFCFF0FA0B1437A57
:1020480010B503F0FF02044653B1226802230121B0
:1020580000206372136843F004031360617210BDBB
:10206800027202F03BFFF0E7012070472DE9F047CC
:102078000D4686B0044616461F46FEF791FA75B31C
:10208800804694F83400C0B2012807D0A36B012021
:1020980043F00053A36306B0BDE8F087F319E26D7F
:1020A80000219342A16322D8636C03222068012B8C
:1020B80084F83420C1624FF4007118BF760201F031
:1020C80029FD0346D0B1226840F2FF5001219063F8
:1020D800A26B08461343A36384F83410DBE7A36BB1
:1020E800012043F00063A36306B0BDE8F087A36B4B
:1020F80043F00073A36306B0BDE8F0874FF0FF31EB
:10210800780290224FF0010A4FF0020900910190E5
:10211800694620680493CDF814A0CDE9022901F09E
:10212800E3FC574533D9C4F830903146206801F0B4
:1021380013FD0246236852B11EE00E9B7BB3FEF7E7
:102148002FFA0E9BA0EB0800984228D223685A6BFE
:1021580012F4957F5A6B2FD11204EED52E1F05F17C
:102168001C0900E02368184601F0A0FC46F8040F9B
:102178004E45F7D12035E0E740F2FF500121986342
:102188000846A36B1A43A26384F8341083E7C4F8A3
:1021980030A03146206801F0CDFC0246CAE723682A
:1021A80040F2FF51012203209963A36B43F00043DF
:1021B800A36384F834206EE7D6050BD5012F09D91F
:1021C800626C032A06D0184601F0FAFC236801461F
:1021D800002856D15A6B100722D45A6B91072BD47A
:1021E8005A6B92060FD533E001F060FC0E9B45F860
:1021F800040B002B38D0FEF7D3F90E9BA0EB080098
:10220800984231D223685A6B184612F40012EBD167
:1022180040F2FF55012110469D6384F834103AE7D7
:1022280040F2FF51012299631046A36B43F0080363
:10223800A36384F834202EE740F2FF51012299630A
:102248001046A36B43F00203A36384F8342022E70B
:1022580040F2FF51012299631046A36B43F020031B
:10226800A36384F8342016E7236840F2FF51012263
:102278009963A36B104643F00043A36384F83420AA
:1022880009E740F2FF50012298631046A36B0B4305
:10229800A36384F83420FEE62DE9F0410D4686B0AC
:1022A800044616461F46FEF77BF9002D38D08046B7
:1022B80094F83400C0B2012807D0A36B012043F082
:1022C8000053A36306B0BDE8F081F319E26D002165
:1022D8009342A1632CD8636C03222068012B84F8F5
:1022E8003420C1624FF4007118BF760201F012FC6D
:1022F800034620BB012F20682DD9202331462363B4
:1023080001F04CFC0346206863B340F2FF52012100
:1023180082630846A26B1343A36384F83410D1E7A1
:10232800A36B012043F00063A36306B0BDE8F0810E
:10233800A36B43F00073A36306B0BDE8F081226885
:1023480040F2FF5001219063A26B08461343A36338
:1023580084F83410B6E710233146236301F00EFCED
:102368000346D0E779024FF0FF3690220191694683
:1023780000960292CDE903330123059301F0B4FBE3
:1023880008E00C9BDBB1FEF70BF90C9BA0EB0800F7
:10239800984214D223685A6B12F48D7F5A6B19D164
:1023A8005604EED505F1200600E0236829460435D9
:1023B800184601F07FFBAE42F7D13546E1E72268C7
:1023C80040F2FF51012303209163A26BA26384F8BA
:1023D800343077E7D0050BD5012F09D9626C032A71
:1023E80006D0184601F0ECFB23680146002835D1D9
:1023F8005A6B110712D45A6B92071BD45A6B12F0FE
:10240800100223D040F2FF51012299631046A36BBA
:1024180043F01003A36384F8342053E740F2FF51DC
:10242800012299631046A36B43F00803A36384F861
:10243800342047E740F2FF51012299631046A36B0D
:1024480043F00203A36384F834203BE740F2FF55CE
:10245800012110469D6384F8341033E740F2FF50A1
:10246800012298631046A36B0B43A36384F83420BE
:1024780028E700BF436E9A0FF0B50A70C3F383676D
:10248800C3F30165C3F30744C3F30722DBB24F70FC
:1024980000268D70CC700A714B71836E1D0EC3F3CC
:1024A8000354C3F307222D014FEAD21CCD80C3F396
:1024B8000345CF883C43C2F38017CC80C2F3001495
:1024C8000D72C2F3401581F809C08F72CD720C737A
:1024D8004E73446C002C40F088809202C46E9B00BE
:1024E800012502F44062E60B03F47F73C4F3026C27
:1024F8000A6106F006060A69C4F34257C4F3C26EBD
:102508001A430A61C4F382420B6943EA94730B616C
:10251800C4F3072381F814E081F815C0C4F3C03C64
:102528008F754FF40077CA750E760A7E42EA0C0260
:102538000A760A690E7E2A440236B24042650E7A4D
:102548000766B5406E0A856502FB06F2C2655D0046
:10255800C3F38012C4F3C01704F07F0305F07E04B0
:102568004A7600258C768A7E2E463A4301278A765B
:10257800CB76036FDA0FC3F341709C0DC3F3405C55
:102588000A77C3F3826204F00C0448778A77C3F3AE
:102598008150CC77C3F30044CA7F0243C3F3C030F1
:1025A800CA77C3F3803281F820C081F82150C3F381
:1025B800403581F82240C3F3003481F82300C3F387
:1025C800812081F82420C3F30122C3F3460381F854
:1025D800255081F8264081F82700304681F82820C8
:1025E80081F8293081F82A70F0BD012C0DD00368DC
:1025F80040F2FF5101229963836B164643F08053E2
:10260800836380F834203046F0BD1A04C46E4FF45A
:10261800007602F47C12230E0A61C4F307420D69A6
:1026280045EA0325C4F307230D610D692A430A61AE
:102638000A6986650132066692024265C26586E7C6
:1026480070B598B00025762104460AAA06680A954E
:1026580007AB0995CDE90B5107CACDE907558DE8B8
:10266800070030460ECB01F005FA23685A68184671
:1026780022F480725A6001F023FA2268022053681B
:1026880043F480735360FDF791FF2068069501F0CD
:10269800BDFA054638B1012084F83400A36B1D4308
:1026A800A56318B070BD206801F0DCFA00284BD093
:1026B8004FF6FF76A564069B00215A1CB34206928A
:1026C80000F0B580206801F00DFB002840F0B280D2
:1026D8000146206801F018FB002840F0AB80014655
:1026E800206801F0F7F90028E5DA00236364012384
:1026F8002068ADF8163001F0E9F9002800F0948060
:10270800626C2368032A42D11846042101F0E2F9D9
:102718000DA9030D2046E364FFF7ACFE226D0023EC
:102728002068120401F060FA05460028B3D1231D81
:1027380054F8106B94E807008DE8070030460ECB7C
:1027480001F098F92846ACE701234FF6FF76A36419
:10275800069B00215A1CB342069268D0206801F0FB
:10276800C1FA4FF080410546002894D1206801F055
:10277800CBFA054600288ED10146206801F0AAF957
:102788000028E5DA4300B0D501236364AFE71846B3
:1027980001F0CCFA054600287FF47DAF0146206899
:1027A80001F098F904216067206801F093F9082185
:1027B800A067206801F08EF90C21E067206801F01D
:1027C80089F9636CC4F88000032B36D00DF116012B
:1027D800206801F0CBFA054600287FF45CAF626CF4
:1027E8002368032A90D0BDF81610184621650904FD
:1027F80001F0ACFA054600287FF44DAF0146206889
:1028080001F068F904216066206801F063F9082185
:10281800A066206801F05EF90C21E066206801F0EE
:1028280059F9236820676FE74FF0806533E74FF069
:10283800807530E74FF080552DE7236864E700BFC7
:10284800C0B190F8343010B503F0FF0204466BB104
:102858000323204684F83430FFF7F2FE00230122D8
:10286800A3631846236384F8342010BD027702F06E
:102878004BFBEDE7012070470346002030B4D3E955
:102888001125DC6C0A601A6D4D605D6D8C609C6D65
:10289800CA60D3E91723C1E90454C1E9062330BC4F
:1028A800704700BF016D10B509040446006801F0C7
:1028B800BDFA014620B1A36B00201943A16310BDE6
:1028C800206801F007F9C0F3432010BD00285DD04F
:1028D800002290F85D302DE9F0418262044603F051
:1028E800FF02002B4DD0E76802232268B7F5E06F9E
:1028F80084F85D3027F40061136894BF4FF4805565
:10290800002523F04003B1F5E06F136035D1A66AC6
:10291800236B2BB9B7F5E06F8CBF02230123236328
:10292800A1684FF00008636820690B43616903439D
:102938000B43D4E906010B43616A4FEA104C00F4DB
:10294800007E0F43216A0CF0040C40460B43616B78
:102958000F4343EA0E034FF0010E47EA0C073343D7
:102968003D4313605560D36923F40063D361C4F811
:10297800608084F85DE0BDE8F08100231E46A36214
:10298800C6E780F85C2002F0FFFAACE70120704748
:10299800704700BF90F83C30012B66D003685F4A4F
:1029A800F0B40224012580F83D409C6880F83C5032
:1029B80022400C68402C9A6000F0978019D9702C3E
:1029C80000F081802BD9B4F5805F77D0B4F5005F33
:1029D8001CD1CC68D1E9015299682A4321F47F417E
:1029E80042EA04220A439A609A6842F480429A6052
:1029F8000CE0102C43D02FD9202C39D0302C05D105
:102A08009A6822F0700242F037029A60002301228D
:102A180080F83C3080F83D201846F0BC7047502CB8
:102A280034D0602CF2D11C6A4D6824F01004CE68B2
:102A38001C6299691A6A21F4704122F0A00241EAE5
:102A4800063142EA051299611A629A6822F0700208
:102A580042F067029A60D9E7002CD7D19A6822F031
:102A6800700242F007029A60D0E7022210467047CF
:102A78009A6822F0700242F027029A60C6E79A68C4
:102A880022F0700242F017029A60BFE71E6A1D6AC0
:102A98004C6826F00A0625F00105CF6834431D620C
:102AA8009A6922F0F00242EA07129A611C629A6857
:102AB80022F0700242F057029A60A7E79968184A14
:102AC8000A409A60A2E7D1E90142CD6822439C6896
:102AD800144942EA052224F47F4422439A609A6802
:102AE800114041F07701996090E71E6A1D6A4C68B1
:102AF80026F00A0625F00105CF6834431D629A695D
:102B080022F0F00242EA07129A611C629A6822F0E7
:102B1800700242F047029A6078E700BF8800FEFF23
:102B2800F8FFFEFF88FFFEFF704700BF704700BF39
:102B3800704700BF704700BF704700BF03681A693D
:102B4800910710B5044602D5DA68920768D41A6965
:102B5800520702D5DA6850074FD41A69110702D50F
:102B6800DA68120737D41A69D00602D5DA68D106AE
:102B78001ED41A69D20702D5DA68D00769D41A694F
:102B8800110602D5DA6812066BD41A69D00502D587
:102B9800DA6811066DD41A69520602D5DA68500649
:102BA8006FD41A69910602D5DA68920649D410BD25
:102BB8006FF01001082220461961DB69227713F4AF
:102BC800407F6FD1FFF7B2FF2046FFF7B3FF002227
:102BD80023682277CDE76FF00801042220461961A7
:102BE800DB6922779B075AD1FFF7A0FF2046FFF742
:102BF800A1FF002223682277B5E76FF004010222C3
:102C0800204619619B69227713F4407F44D1FFF76E
:102C18008DFF2046FFF78EFF0022236822779CE76E
:102C28006FF00201012219619B690277990730D17F
:102C3800FFF77CFF2046FFF77DFF002223682277FD
:102C480085E76FF0200220461A61BDE8104000F0C9
:102C580017BA6FF0010220461A61FFF765FF236873
:102C68008DE76FF0800220461A6100F00BFA2368A6
:102C78008BE76FF0800220461A6100F003FA2368A0
:102C880089E76FF0400220461A61FFF755FF236875
:102C980087E7FFF74DFFD0E7FFF74AFFBCE7FFF7ED
:102CA80047FFA6E7FFF744FF91E700BFF0B4324EB5
:102CB800B0F1804F314FA0EB06060368A0EB070781
:102CC800B6FA86F6B7FA87F74FEA56164FEA571755
:102CD80025D026BB2A4A90423ED002F58062904217
:102CE8003AD002F5806290423BD0002F39D1254A74
:102CF800904218D002F58062904214D002F58062AA
:102D0800904210D0A2F5983290420CD002F5806221
:102D1800904208D002F58062904208D103E023F087
:102D280070034D682B4323F44073CD682B434A69E5
:102D380023F080038C6813430A680360C4628262CC
:102D480026B91FB90123F0BC436170470B690363BF
:102D58000123F0BC4361704723F070034A681343B2
:102D6800E1E7094A23F070034C68904243EA040300
:102D7800D9D0002FD7D1BAE70000014000040140A4
:102D88000004004000400140000C0040B8B190F839
:102D98003D3010B503F0FF0204465BB10223206802
:102DA800211D84F83D30FFF781FF0123002084F8BE
:102DB8003D3010BD80F83C2002F04AF9EEE70120D2
:102DC800704700BFB8B190F83D3010B503F0FF026E
:102DD80004465BB102232068211D84F83D30FFF7CB
:102DE80065FF0123002084F83D3010BD80F83C20A9
:102DF800FFF7CEFDEEE70120704700BFF0B4046A8C
:102E08008D6824F001040E68124A0462036A44685B
:102E180023F0020387692B430F4D3A40A84242EA48
:102E280006020AD005F58065A84206D049684460C4
:102E3800826141630362F0BC704723F00803CF68E6
:102E48004D6924F440748E693B43354323F00403F1
:102E58002C43EBE78CFFFEFF00000140F0B4046A4E
:102E68008D6824F010040E68144A0462036A4468EA
:102E780023F02003876943EA0513114D3A40A8421D
:102E880042EA06220AD005F58065A84206D04968BC
:102E98004460826181630362F0BC704723F0800361
:102EA800CF684D6924F440648E6943EA07133543BB
:102EB80023F0400344EA8504E9E700BFFF8CFFFEE6
:102EC80000000140F0B4046A8D6824F480740E6830
:102ED800144A0462036A446823F40073C76943EA26
:102EE8000523114D3A40A84242EA06020AD005F5E8
:102EF8008065A84206D049684460C261C163036224
:102F0800F0BC704723F40063CF684D6924F4405443
:102F18008E6943EA0723354323F4806344EA0514A2
:102F2800E9E700BF8CFFFEFF00000140F0B4046A2F
:102F38008D6824F480540E680F4A0462036A44685A
:102F480023F40053C76943EA05330C4D3A40A842BD
:102F580042EA06220AD005F58065A84206D04968EB
:102F68004460C26101640362F0BC704724F4804489
:102F78004D6944EA8514F2E7FF8CFFFE000001402A
:102F8800F0B4046A8D6824F480340E680F4A046231
:102F9800036A446823F40033476D43EA05430C4D44
:102FA8003A40A84242EA06020AD005F58065A842DE
:102FB80006D049684460426581650362F0BC704789
:102FC80024F480344D6944EA0524F2E78FFFFEFFBC
:102FD80000000140F0B4046A8D6824F480140E687F
:102FE8000F4A0462036A446823F40013476D43EAF6
:102FF80005530C4D3A40A84242EA06220AD005F58C
:103008008065A84206D0496844604265C16503628C
:10301800F0BC704724F480244D6944EA8524F2E723
:10302800FF8FFFFE0000014090F83C30012B70B488
:103038001FD00268114D5368AA42946814D005F550
:103048008065AA4210D00E680025896824F08004A3
:1030580023F07003214333432E465360916080F878
:103068003C50304670BC704723F470034D682B43C6
:10307800E9E70226304670BC704700BF00000140F7
:10308800704700BF704700BF38B590F83C30012B3F
:1030980000F08D800D4602230121044680F83D3062
:1030A80080F83C10142A1DD8DFE802F00B1C1C1C09
:1030B800371C1C1C4A1C1C1C5C1C1C1C6F1C1C1C6C
:1030C800240029460068FFF799FE23682869996952
:1030D80041F008019961996921F0040199619A699F
:1030E80002439A6100230122184684F83D2084F89F
:1030F8003C3038BD29460068FFF76CFF2368286913
:10310800596D41F400615965596D21F48061596523
:103118005A6D42EA00225A65E4E729460068FFF73B
:103128009DFE23682869996941F40061996199694C
:1031380021F4806199619A6942EA00229A61D1E793
:1031480029460068FFF7BEFE23682869D96941F05F
:103158000801D961D96921F00401D961DA6902430A
:10316800DA61BFE729460068FFF7E0FE23682869AF
:10317800D96941F40061D961D96921F48061D961C3
:10318800DA6942EA0022DA61ACE729460068FFF70B
:10319800F7FE23682869596D41F008015965596D92
:1031A80021F0040159655A6D02435A659AE70220D5
:1031B80038BD00BF2DE9F843089D80460F461646E6
:1031C8009946D8F8004001E06B1C0AD1E06937EA5B
:1031D80000030CBF01200020B042F5D00020BDE85C
:1031E800F8833DB1FDF7DCF9A0EB0900A842E8D36C
:1031F800D8F80040236820220021032023F4D0734C
:103208002360A36823F00103A36088F8692088F885
:10321800681088F86A20E2E7704700BF704700BF6F
:1032280090F86A20222A38B5036814D18468B0F867
:103238005C10B4F5805F426D13D05B6A541C0B4080
:1032480044651370B0F85A40013CA4B2A0F85A4043
:1032580084B1002038BD9A69022042F008029A61C0
:1032680038BD0469002CE8D15B6A0B4022F8023BA8
:103278004265E7E702682025116821F49071116022
:10328800916821F00101916080F86A50FFF7C6FF4C
:10329800204638BD704700BF0368DA6970B5160765
:1032A8001D680446996828D1910602D5AE0600F13A
:1032B8008B80160604D4510601D56A0679D470BDF0
:1032C8002806F8D594F86920212AF8D1B4F85220B4
:1032D80092B2002A00F09180A168E26CB1F5805F9B
:1032E80000F09480511CE16412789A62B4F852306C
:1032F800013B9BB2A4F8523070BD11F0010102D11C
:1033080015F4907FD5D0D00707D5EE0505D5012057
:103318001862E06E40F00100E066900738D450076C
:1033280001D500293ED1160703D5A80650D4002997
:103338004ED1E16E0029C2D0960601D5A80652D416
:10334800E26E110703D49D6815F0400550D01A6845
:10335800202122F490721A609A6822F001029A6081
:1033680084F86A109A68520639D59A68616E22F014
:1033780040029A60002932D02A4B08460B65FDF7B7
:103388001BFD00289BD0606EBDE87040036D184798
:103398000029C8D0022056071862E06E40F00400E9
:1033A800E066C0D504201862E06E40F00200E066D6
:1033B800B9E71A682021204622F040021A6084F8F2
:1033C8006910FFF729FF70BDBDE87040FFF728BFFF
:1033D80008211962E16E41F00801E166A9E720467B
:1033E800FFF758FF70BD2046FFF71AFF2368A7E7CD
:1033F8002046FFF74FFFE56670BD1A6822F080028D
:103408001A601A6842F040021A6070BD21690029EA
:103418007FF468AF32F8021BC1F308019962E264D5
:1034280064E700BF3134000808B50022836BA3F8B5
:103438005A201846A3F85220FFF72CFF08BD00BFFA
:10344800F8B504468368A249E669E768A14DD0E962
:1034580004201A43236802431868AB4201EA0001BA
:1034680042EA060242EA0102A1691A605868226A21
:1034780020F4405042EA010240EA07005860996887
:1034880021F4306142EA01029A6043D0924A9342A1
:103498001DD0924A934200F09080914A934200F0E6
:1034A800B880904A934247D08F4A934200F09F8059
:1034B8008E4A934200F0E9808D4A934200F0F680EC
:1034C800B6F5004F00F0D28001221046F8BD8949B8
:1034D800894AD1F8901001F00C010A441279B6F526
:1034E800004F1FD0082AEFD801A151F822F000BFE1
:1034F800B73500086D3500085F360008D13400087C
:103508000F360008D1340008D1340008D13400083F
:10351800E5350008774A7849D2F8902002F003028E
:103528008A5CDCE7082A00F2A180DFE802F0432881
:10353800809F6F9F9F9F8E0002F5F432D2F89020F3
:1035480002F44072B2F5807F5AD02BD9B2F5007FD1
:103558006AD0B2F5407F3ED0B2E7002AB0D1B6F5C6
:10356800004F0CD0FEF796FA0022D4E9001300EBC6
:103578005300B0FBF3F080B2C8601046F8BDFEF708
:1035880089FA0022D4E90035690801EB4000B0FB54
:10359800F5F0C0F3420120F00F00014389B2D96071
:1035A8001046F8BD002A8BD1B6F5004F02D0FEF7C1
:1035B80061FAD9E7FEF75EFAE3E702F5F832D2F8E6
:1035C800902002F03002102A1AD0EBD9202A2BD0F2
:1035D800302A7FF475AFB6F5004F36D06068002208
:1035E800410801F50041B1FBF0F189B2D7E702F5D6
:1035F8009232D2F8902002F44062B2F5806F38D14E
:10360800B6F5004F02D0FEF721FAADE7FEF71EFA35
:10361800B7E702F5F632D2F8902002F0C002402A4D
:10362800EED0BFD9802A2DD1B6F5004F13D16168ED
:103638000022324800EB5100B0FBF1F0C0F3420128
:1036480020F00F00014389B2A9E761680022480809
:1036580000F58030F0E760680022294901EB50014D
:10366800B1FBF0F189B21046D960F8BD0021012202
:1036780095E77FF672AFB2F5006FD5D0B2F5406F1F
:10368800A9D01DE7C02AA6D01AE702F5E032D2F881
:10369800902002F44052B2F5805FB1D082D9B2F5E1
:1036A800005FC1D0B2F5405F95D009E702F5DE3280
:1036B800D2F8902002F44042B2F5804FA0D07FF6B5
:1036C80071AFB2F5004FAFD0B2F5404F83D0F7E6F7
:1036D800F369FFEF0010014000440040004800403B
:1036E800004C0040005000400014014000780040A9
:1036F800007C004000380240105500080048E801EE
:103708000024F400436ADA0710B406D50168846A15
:103718004A6822F4003222434A609C0706D50168B1
:10372800C46A4A6822F4803222434A60590706D59F
:103738000168046B4A6822F4802222434A601A070F
:1037480006D50168446B4A6822F4004222434A6065
:10375800DC0606D50168846B8A6822F4805222430D
:103768008A60990606D50168C46B8A6822F40052FB
:1037780022438A605A060AD50168046C4A68B4F57F
:10378800801F22F4801242EA04024A600BD01B0612
:1037980006D50268816C536823F400230B435360F9
:1037A8005DF8044B70474A68446C22F4C002224317
:1037B8004A60ECE770B50025044682B0C566FCF7A0
:1037C800EFFE2268126813070AD400232022184645
:1037D80084F8692084F8683084F86A2002B070BDE3
:1037E8006FF07E4603462A464FF4001100962046A5
:1037F800FFF7E0FC0028E8D0032002B070BD00BF4E
:1038080090B390F8693010B503F0FF02044603B393
:1038180022682423204684F86930136823F00103C2
:103828001360FFF70DFE012818D0636AC3B9236837
:1038380020465A6822F490425A609A6822F02A0276
:103848009A601A6842F00102BDE810401A60FFF75A
:10385800B1BF80F8682001F08FFCD9E7012010BDC6
:103868002046FFF74FFFE2E701207047174A01465D
:1038780041F28833126810B4154CA4FB0202520AB4
:1038880003FB02F303E04A6B12F0450F07D113F173
:10389800FF33F8D24FF000405DF8044B70474B6B94
:1038A8005B070ED4486B10F0010005D140F2FF53BE
:1038B8005DF8044B8B63704701205DF8044B886307
:1038C800704704205DF8044B886370470C000020A3
:1038D800D34D6210134A014641F28833126810B47E
:1038E800114CA4FB0202520A03FB02F303E04A6BE9
:1038F80012F0450F07D113F1FF33F8D24FF0004013
:103908005DF8044B7047486B10F0040005D140F295
:10391800FF535DF8044B8B63704704205DF8044B3C
:10392800886370470C000020D34D62104E4B10B4D2
:103938001B6883B04D4CA4FB03435B0A02FB03F2F4
:10394800A2B1436B013A13F0450FF9D0436B5A0704
:1039580019D4426B12F001020ED10369DBB299420D
:1039680018D0012003B05DF8044B70474FF00040B9
:1039780003B05DF8044B704701238363184603B016
:103988005DF8044B704704238363184603B05DF861
:10399800044B704740F2FF5400F11401344B846328
:1039A80001920191019A126813404BB3002A2BDB54
:1039B800530027D494002AD4D1002AD413012BD43D
:1039C80054012CD4D10130D413022BD4540232D454
:1039D80091022DD4D30237D4540332D491033FD467
:1039E800D3033AD4140435D4510430D4930425D4E1
:1039F80012F0080F14BF4FF400004FF48030B7E7FF
:103A08001846B5E74020B3E74FF00070B0E78020D4
:103A1800AEE74FF48070ABE74FF40070A8E74FF4BF
:103A28008060A5E74FF48050A2E74FF400609FE75D
:103A38004FF480409CE74FF4005099E74FF4800022
:103A480096E74FF4003093E74FF4004090E74FF4C7
:103A580000108DE74FF480108AE74FF4002087E7C5
:103A68004FF4802084E700BF0C000020D34D621083
:103A780008E0FFFD84B070B404AE079C0546002042
:103A880086E80E000B46DDE905211343089A0B432F
:103A9800099923436C681343034A0B432240134399
:103AA8006B6070BC04B070470081FFFFD0F88000E5
:103AB800704700BF03460A680020C3F8802070479B
:103AC8000346032200201A60704700BF006800F018
:103AD80003007047143082B0002301440193019120
:103AE800019B186802B0704730B402460C68002089
:103AF800D1E902352B434D6854620C699562234322
:103B08004D69D46A2B4324F0F7010B4330BCD362D0
:103B1800704700BF30B4064B41F2883281601021F3
:103B2800C5682B4043F48A6330BCC360FFF7FEBE10
:103B380000F0FFFF70B4816040F25144C66841F262
:103B48008832044D112135402C43C46070BCFFF706
:103B5800EDBE00BF00F0FFFF70B4816040F2524438
:103B6800C66841F28832044D122135402C43C460A6
:103B780070BCFFF7DBBE00BF00F0FFFF30B4064BA0
:103B880041F2883281601821C5682B4043F48B6369
:103B980030BCC360FFF7CABE00F0FFFF70B481609D
:103BA80040F25944C66841F28832044D1921354023
:103BB8002C43C46070BCFFF7B9BE00BF00F0FFFF24
:103BC80000220C2130B4826040F24C44C268044D9B
:103BD8001540044A2C43C46030BCFFF7A7BE00BFA1
:103BE80000F0FFFF00E1F50570B4826040F2474441
:103BF800C66841F28832044D072135402C43C46021
:103C080070BCFFF793BE00BF00F0FFFF134B0146E7
:103C18000022186841F2883310B4114C8A60A2F56A
:103C28008052A4FB0040CC682240400A42F48062E3
:103C380003FB00F3CA6002E04A6B120607D413F1D3
:103C4800FF33F9D24FF000405DF8044B704740F263
:103C5800FF5300205DF8044B8B6370470C00002075
:103C6800D34D62101C4B01464FF4D572186841F2CF
:103C7800883310B4194C8A60A4FB0040184ACC68F9
:103C8800400A224003FB00F342F48962CA6003E061
:103C98004A6B12F0450F07D113F1FF33F8D24FF0FA
:103CA80000405DF8044B7047486B10F004000CD1DD
:103CB8004B6B13F0400304D040235DF8044B8B6337
:103CC800704718465DF8044B7047402304205DF8A0
:103CD800044B8B63704700BF0C000020D34D62106B
:103CE80000F0FFFF70B4816040F27744C66841F28B
:103CF8008832044D372135402C43C46070BCFFF72F
:103D080015BE00BF00F0FFFF30B4064D40F2694217
:103D1800054C0D438560C1680C40224330BCC2602D
:103D2800FFF7D8BD0000108000F0FFFF10B400249A
:103D3800054940F2C2428460C46821405DF8044BE2
:103D48000A43C260FFF792BD00F0FFFF10B4816024
:103D580040F2C942C168044C0C4022435DF8044B50
:103D6800C260FFF783BD00BF00F0FFFF70B42C4BAB
:103D780000242C4A83B0846040F24344C6681B6820
:103D8800294DA2FB032335405A0A41F288332C43BC
:103D980003FB02F3C46003E0426B12F0450F07D146
:103DA80013F1FF33F8D24FF0004003B070BC7047F6
:103DB800436B5C0711D4436B13F0010307D102690D
:103DC800D2B2032A0FD0012003B070BC7047012380
:103DD8008363184603B070BC704704238363184696
:103DE80003B070BC704700F1140240F2FF548463C2
:103DF80001930192019B1B6813F4604009D05A0497
:103E08000AD413F4004F14BF4FF480504FF480309D
:103E1800CBE71B0C0B80C8E74FF40050C5E700BF89
:103E28000C000020D34D621000F0FFFF70B48160D9
:103E380040F24D44C66841F28832044D0D213540A8
:103E48002C43C46070BCFFF771BD00BF00F0FFFFDA
:103E58000B4B01E0013B10D00269002AFADA036932
:103E6800074A43F00103036101E0013A05D0036901
:103E780013F00103F9D1184670470320704700BFBB
:103E8800400D030084B038B50A9D05AC012D84E8C7
:103E98000E00014622D1826B184B22F48032119811
:103EA8008A630128CA6803EA0203CB60CB6823F45B
:103EB8004013CB601CD00846FFF7CAFF089B012BB4
:103EC80007D18B6843F006038B608B6843F02003AF
:103ED8008B600020BDE8384004B07047C36843F0E9
:103EE8004003C360FFF7B4FF4FF480338B63E5E70B
:103EF800CB6843F48013CB60DDE700BFBFFFBDFF95
:103F080002460020936823F001039360704700BFC6
:103F180008B5C368012923F0C043C3600BD041B979
:103F2800C36843F08043C3603220FCF73FFB0020A6
:103F380008BD012008BDC36843F00053C360F3E720
:103F480084B02DE9F043002408AE0B9DDDF834C0A1
:103F5800274686E80E00129E0A9A04F140030134AF
:103F680000EB83030F2C5F60F7D1836B43F40013DE
:103F780083635EB9836B23F400138363036843F0A0
:103F880040030360036843F0800303600023BCF12F
:103F9800010F00F50067C0F8003ED0F80038C0F8FF
:103FA8000038D0F800383AD0BCF1030F37D043F0CE
:103FB8000303C0F800384FF48462464B026101E005
:103FC800013B02D002699406FAD41022414B0261E7
:103FD80001E0013B02D00269D206FAD400223A611C
:103FE8007A61FA6111B300F510634FF090484FF011
:103FF800006994464FF67F3E09E0C3F800C00132DD
:10400800C3F810C0C3F808E020338A4233D01C68D4
:10401800002CF2DA002A59D0C3F80080EFE7002A12
:10402800C7D043F00103C0F80038C4E73B69012D4D
:1040380023F480733B613AD000226FF080438261A1
:1040480043611DB9836943F0100383618169224B81
:104058000E9A0B4383611AB1836943F008038361A5
:10406800012E03D182691D4B134383610020BDE8F3
:10407800F04304B07047002100F530634FF09048DA
:104088004FF000698C464FF67F3E09E0C3F800C048
:104098000131C3F810C0C3F808E020339142C5D0FD
:1040A8001C68002CF2DA71B1C3F80080F0E70C4A02
:1040B80000210C4B3A636FF080423C6B23433B6317
:1040C80081614261C2E7C3F80090E1E7C3F800905C
:1040D80095E700BF400D030000383C800400004015
:1040E800000180000300010000F50062032008B50C
:1040F800536843F002035360FCF758FA002008BDE8
:10410800114B5A7A0AB101207047F0B502F0FF044A
:1041180093F809E05E7A4FF03A0C5D7A2F275A7AC5
:1041280003EB86061D4403F80E40D2B270602C7271
:10413800501C3032C0B2587220460A70CC7081F8D8
:1041480001C08F70F0BD00BF2C00002082B0012399
:104158008DF807309DF80730012B02D0022002B0FD
:104168007047024802B0FEF76BBB00BF542700201F
:1041780000B583B0009313460A4601460448FDF78C
:1041880075FF003018BF012003B05DF804FB00BFC5
:104198005427002000B583B0009313460A46014611
:1041A8000448FEF779F8003018BF012003B05DF825
:1041B80004FB00BF5427002008B50348FEF772FB34
:1041C800043818BF012008BD5427002001460148C3
:1041D800FEF752BB5427002008B503490348FFF7F0
:1041E8008FFF034B187008BD40000020545500088D
:1041F8003C000020334A1020334B116C41F08051B1
:10420800F0B51164B9B0126C4FF480350126022460
:1042180002F0805203274FF480010092009A1A6836
:1042280042F440421A60D8221B680895082503F416
:1042380040430B9007A80A96019309230797019E0C
:104248000D94119410921293CDE90E15FDF788F98B
:1042580000B1FEE7FDF728F900B1FEE74FF48053FF
:104268004FF4A0520F260721CDE9034002A8029679
:10427800CDE90523FDF742FB034600B1FEE71349EC
:10428800202214A82B932D9314912792CDE925452C
:10429800CDE93333FDF70EFC044600B1FEE7FDF728
:1042A800E3FB4FF47A73B0FBF3F0FCF7EFFB042069
:1042B800FCF704FC224621464FF0FF30FCF7A4FB34
:1042C80039B0F0BD0038024000700040C051A00075
:1042D800B54D01264FF480794FF0100880B596B09F
:1042E8000327FCF745F9FFF785FF2B6B002247F6FC
:1042F800406143F01003AD4814462B632B6B03F069
:1043080010030293029B2B6B43F080032B632B6BF0
:1043180003F080030393039B2B6B43F004032B638D
:104328002B6B03F004030493049B2B6B33432B6325
:104338002B6B33400593059B2B6B43F002032B63D8
:104348002B6B03F002030693069B2B6B43F00803C9
:104358002B632B6B03F008030793079BFCF734FFD1
:10436800224636219248FCF72FFF324640F21311BD
:104378009048FCF729FF22464FF401718D48FCF75D
:1043880023FF324640F203118B48FCF71DFF2246FB
:1043980041F210618848FCF717FF324640218448F3
:1043A800FCF712FF224649468448FCF70DFF47F602
:1043B80040630FA97D480F931294CDE91064FCF770
:1043C800E5FD36230FA97A480F931294CDE91064BE
:1043D800FCF7DCFD40F207330FA976480F931294DF
:1043E800CDE91064FCF7D2FD0FA973481297CDF8F8
:1043F8003C90CDE91064FCF7C9FD41F213630FA9A5
:104408006D480F931294CDE91064FCF7BFFD4FF48B
:1044180000630FA968480F93CDE91044FCF7B6FD77
:104428004FF4C042664B0FA963481194CDE90F239E
:10443800FCF7ACFD402202230FA95D480F921293AE
:10444800CDE91064FCF7A2FD0FA95C48CDE90F96F1
:10445800CDE91144FCF79AFD0FA956481297CDF8FB
:104468003C80584FCDE91064FCF790FD564B0FA9DE
:104478004E480F96CDE91036FCF788FD22460C21F0
:104488000620FCF7C1FA0620FCF7F4FA2B6B22464B
:104498000A2143F4800340462B632B6B03F480030B
:1044A8000093009B2B6B43F400132B632B6BA5F538
:1044B8008C3503F400130193019BFCF7A5FA4046E1
:1044C800FCF7D8FA224621461120FCF79DFA112064
:1044D800FCF7D0FA224609213820FCF795FA382053
:1044E800FCF7C8FA22460F213A20FCF78DFA3A2049
:1044F800FCF7C0FA4FF480314FF080524FF0506310
:104508003846BC603C61BC613C62FC60FE613E6355
:104518007E61C7E90051C7E90A32FCF759F800B1D2
:10452800FEE703460FA938461193CDE90F36FCF78D
:10453800A1F900B1FEE7254C254B20462360FCF786
:1045480065FB00B1FEE70423024610900FA9204640
:104558000F93FCF771FB034600B1FEE74246204685
:104568000FA90F93FCF768FB00B1FEE7194B072270
:104578004FF400714FF48275174F4FF4E064986060
:10458800DA62DC609961C3E90400C3E90700C3E9A2
:104598000900C3E90C001846C3E90075FEF796F94F
:1045A8000246D8B1FEE700BF0038024000100240C2
:1045B8000008024000040240000C024000000240D3
:1045C80000001110B828002000003110182A00201F
:1045D80000740040AC200020003800409B4B4FF492
:1045E80016549B490C274FF400451A619A615F6184
:1045F800DD61C3E902001846C3E90822C3E90014D3
:10460800FFF7FEF800B1FEE7924B4FF4E132924912
:10461800C3E90200C3E90407C3E90605C3E90800C2
:104628001846C3E90012FFF7EBF8024600B1FEE7AF
:104638008A4B8B4918465C601960C3E90222C3E9BA
:104648000427C3E90625C3E90822FFF7D9F802467B
:1046580000B1FEE7834B844C844918461A62C3E9CB
:104668000226C3E90422C3E90622C3E90041FCF794
:10467800E1FD00B1FEE700217A48FCF72FFE014674
:1046880000B1FEE77748FCF753FE024600B1FEE7AB
:10469800774B4FF400747749802503F12000764E5C
:1046A8008C60C1E90330C1E90065744B0846744960
:1046B800DC609A611960C3E90122C3E90422FCF7AE
:1046C80081FA00B1FEE76F4B202218461A60FCF70A
:1046D8008DFD00B1FEE76C4B6C4A18461A60FDF779
:1046E800ADFC024600B1FEE7694B01266949184650
:1046F8009A8019601E62C3E90522FCF7F1F90546A4
:1047080000B1FEE7FFF768FD634C64484FF4803161
:104718004FF080524FF0E06320602046A56025618D
:10472800A5612562E560E661266366616160C4E9AA
:104738000A32FBF74DFF00B1FEE7072303222046AC
:104748000FA91193CDE90F26FCF794F8034600B1A1
:10475800FEE7534C40F20D11524D40F2E732A06093
:1047680020462361A361E260C4E90051FEF70EFB15
:1047780000B1FEE74FF4805320460FA90F93FEF7D0
:1047880009F900B1FEE7002345480BA90B930D93E7
:10479800FEF74AFC034600B1FEE7434C43F2BB4236
:1047A800424960602046A360A3612160E260FEF791
:1047B800EDFA034600B1FEE7202620460FA9119323
:1047C8000F96FEF731FC00B1FEE7394C4AF6BF02FE
:1047D80038494CF24F33A060A06121606260E36009
:1047E800C4E904002046FEF7D1FA00B1FEE74FF411
:1047F80080550FA920460F95FEF7CCF8034600B167
:10480800FEE720460BA90D93CDE90B63FEF70CFCE0
:10481800034600B1FEE7284C40F2E732274945F24B
:104828005F46A0602046A3612160E2606660FEF7F3
:10483800ADFA034600B1FEE720460FA90F93119386
:10484800FEF7F2FB0346D8B3FEE700BFA829002015
:10485800001001403C2B00200044004000220020B2
:1048680000480040E4220020005400409469C3102E
:10487800245500084C2C0020000006505427002026
:10488800002C0140B8220020CC2A00200008065045
:104898003027002000300240702200200021014013
:1048A800C0210020000800408C2A00200010004091
:1048B80080210020000401400C2C0020001400403E
:1048C800694C40F2C112694920466660A3602361C1
:1048D800A3612160E260FEF759FA00B1FEE72046C5
:1048E8000FA90F95FEF756F800B1FEE700230BA9B4
:1048F8005D480B930D93FEF797FB034600B1FEE767
:104908005B4C4FF480325B4901252361A36123622C
:10491800E362E3602363584BA0602046A3622160F2
:104928006260E5616561FBF753FE034600B1FEE78F
:1049380020460FA91193CDE90F55FBF79BFF00B156
:10494800FEE74E4B4FF482724D494FF400465A60D1
:104958004FF440751960082207214FF4007418615C
:10496800586118639C61D9625A63C3E90700C3E9B7
:1049780009001846C3E90265FDF7A8FF034600B120
:10498800FEE7404C404A2046A3612260C4E9013357
:10499800C4E90333FEF7FAF900B1FEE74FF4805398
:1049A8000BA920460B93FDF7F5FF00B1FEE7204663
:1049B800FEF708FA034600B1FEE708A92046089367
:1049C8000A93FEF731FB034600B1FEE760250FA905
:1049D800042220460F951393CDE91033FEF754FBBC
:1049E800054600B1FEE72046284C00F0ABFB284BFB
:1049F8004FF4E1310C2218461D615A61C3E9025592
:104A0800C3E90655C3E90855C3E90041FEF7F8FEB6
:104A180000B1FEE71F4B002202214FF0A0450624FB
:104A28001846D96099615A62C3E90054C3E904225F
:104A3800C3E90722C3E90B22FCF7A4FC00B1FEE797
:104A4800154C012204212046FCF7BEFB6420FBF72D
:104A5800ADFD204600220421FCF7B6FB4FF461703F
:104A6800FBF7A4FDEDE700BFD8270020000C0040AD
:104A780000290020002201400100000FD82A002050
:104A88000030014018280020000400400078004051
:104A9800102100203023002000080240FEE700BF5C
:104AA80038B50A4C01252570FFF750FB08B120786E
:104AB80038BD2570FFF780FB18B9237803F0FE0393
:104AC80023702378DBB22370207838BD08000020DB
:104AD80010B50123054C2370FFF76EFB18B9237836
:104AE80003F0FE032370207810BD00BF08000020EB
:104AF80008B5084611461A464FF0FF33FFF738FB52
:104B080020B9FFF759FB0028FBD108BD012008BDDB
:104B1800164B1B78DB0708D410B5144688B0032958
:104B280021D8DFE801F004070F17032070470020A1
:104B380008B010BD6846FFF749FB069B00202360BC
:104B480008B010BD6846FFF741FB079B0020238093
:104B580008B010BD6846FFF739FB079B00205B0AC9
:104B6800236008B010BD042008B010BD0800002064
:104B780008B5084611461A464FF0FF33FFF70AFBFF
:104B880020B9FFF719FB0028FBD108BD012008BD9B
:104B9800224B03201A6C42F0805200B51A6483B08D
:104BA8001A6C02F080520092009A5A6C42F48042C9
:104BB8005A645B6C03F480430193019BFBF710FF7D
:104BC80000226FF00B001146FBF71EFF00226FF06A
:104BD8000A001146FBF718FF00226FF00900114682
:104BE800FBF712FF00226FF004001146FBF70CFFE1
:104BF80000226FF003001146FBF706FF00226FF05A
:104C080001001146FBF700FF00224FF0FF3011466C
:104C180003B05DF804EBFBF7F7BE00BF00380240B5
:104C28004C4A03689342F0B5044689B007D04A4A13
:104C3800934240D0494A93426DD009B0F0BD484BE9
:104C48000120002603255A6C03A94FF4806742F41B
:104C580080725A645B6C039003F480734148049536
:104C68000093414D009B0596FCF790F93F484FF49F
:104C780000614FF400524FF40033286028466E60FC
:104C8800EE616E62AA612B62C5E90266C5E904712C
:104C9800FBF7F6FF18B186213548FFF7FFFEA5633D
:104CA80000220F211220AC63FBF7AEFE1220FBF7A7
:104CB800E1FE09B0F0BD2A4B0820032500265A6CF6
:104CC80003A92C4F42F400725A645B6C039003F4FE
:104CD8000073244804950193274D019B0596FCF722
:104CE80055F94FF000714FF400624FF40053284615
:104CF8002E616E62C5E90266C5E90766C5E90071FD
:104D0800C5E90523FBF7BCFF0028C8D0B021184827
:104D1800FFF7C4FEC3E7124B0322002502265C6C92
:104D280003A9104844F480645C645B6C039603F444
:104D380080630293029BCDE90425FCF727F92A46F4
:104D48000F211220FBF760FE1220FBF793FE09B03B
:104D5800F0BD00BF002001400021014000220140B9
:104D680000380240000002402C2A00201064024053
:104D78008055000840640240AC2B00200268094BB3
:104D88009A4200D07047D3F8302803F5006382B008
:104D980042F480521A631B6B03F480530193019B06
:104DA80002B07047003002400268084B9A4200D0B7
:104DB8007047074B82B05A6B42F010025A635B6B24
:104DC80003F010030193019B02B0704700000650E6
:104DD80000380240204B02689A4200D0704703F521
:104DE800E2331A6C42F00052F0B51A6487B01B6CBB
:104DF80005463020002603F00053032401A9019042
:104E080000934FF4806715480294009B144C039656
:104E1800FCF7BCF8134B40204FF0606C4FF4006176
:104E28004FF4005223604FF40033E660E661666297
:104E3800A2612362C4E901C02046C4E90471FBF7FA
:104E48001FFF18B9AC60A56307B0F0BD40F2971119
:104E58000548FFF723FEF5E7007400400000024014
:104E6800582800208860024080550008064B82B010
:104E78005A6B42F020025A635B6B03F020030193E4
:104E8800019B02B0704700BF003802400268104B17
:104E98009A4200D0704730B5042387B0C02003225F
:104EA800122501240DEB030101900A48CDE90423E2
:104EB800CDE90254FCF76AF8074B1A6C42F4001269
:104EC8001A641B6C03F400130093009B07B030BDF9
:104ED8000054004000040240003802400268084BB9
:104EE8009A4200D07047074B82B05A6B42F040029A
:104EF8005A635B6B03F040030193019B02B0704758
:104F0800000806500038024002681C4B9A4200D044
:104F1800704703F586334FF480705A6C42F4006290
:104F2800F0B55A6487B05B6C022403260C2503F4A1
:104F38000063012701A9019000931148009B029486
:104F48000595CDE90376FCF721F84FF4805301A9C4
:104F58000B480193CDE90244CDE90465FCF716F846
:104F6800042308480DEB03010193CDE90247CDE97D
:104F78000465FCF70BF807B0F0BD00BF002C01403A
:104F880000080240000C024003682C4A9342F0B526
:104F980089B02ED02A4A934201D009B0F0BD294BDE
:104FA800022600204FF400511A6C0325052442F410
:104FB80080421A641B6C039103A903F48043CDE972
:104FC800046000F180400293029B00F50130CDE9B6
:104FD8000654FBF7DBFF4FF44042012303A91A48AC
:104FE800049603920593CDE90654FBF7CFFF09B069
:104FF800F0BD144B8020022700265A6C0325052497
:1050080003A942F480525A645B6C039003F4805302
:105018000E4804970193019B0794CDE90565FBF7BA
:10502800B5FF082303A908480393CDE90476CDE921
:105038000654FBF7ABFF09B0F0BD00BF00300140DC
:10504800003800400038024000040240000C0240D2
:105058000368354A934210B586B010D0334A93425C
:1050680039D0334A934221D0324A93423FD0324A10
:10507800934248D0314A93420DD006B010BD304B10
:105088001A6C42F002021A641B6C03F002030093CC
:10509800009B06B010BD2A4B5A6C42F002025A64BB
:1050A8005B6C03F002030593059BE6E7244B0022A3
:1050B80032201C6C114644F008041C641B6C03F07D
:1050C80008030293029BFBF79FFC322006B0BDE861
:1050D8001040FBF7CFBC1A4B1A6C42F004021A645A
:1050E8001B6C03F004030193019B06B010BD144B25
:1050F8001A6C42F010021A641B6C03F0100303933D
:10510800039B06B010BD0E4B002237201C6C1146C5
:1051180044F020041C641B6C03F020030493049BDC
:10512800FBF772FC3720D1E700040040000800407C
:10513800000C004000100040001400400004014032
:105148000038024002680A4B9A4200D0704710B5F6
:1051580086B002220023202401A906480592CDE941
:105168000142CDE90333FBF711FF06B010BD00BFC4
:105178000004004000040240504A03689342F0B51E
:105188008BB02DD04E4A934245D04E4A93425DD0C3
:105198004D4A934201D00BB0F0BD4C4B0220002485
:1051A8000722196C4FF44066032541F480211964E5
:1051B80005A91B6C069003F48023454809920493C3
:1051C800049B0596CDE90745FBF7E0FE22460F2133
:1051D8002720FBF719FC2720FBF74CFC0BB0F0BD90
:1051E8003A4B4FF4C071022000261A6C032508249C
:1051F80042F080421A641B6C059105A903F08043B4
:10520800069034480193019B0994CDE90765FBF7A3
:10521800BDFE0BB0F0BD2D4B4FF4C061022000263F
:105228005A6C0325072442F010025A645B6C0591FE
:1052380005A903F01003069027480293029B0994DE
:10524800CDE90765FBF7A2FE0BB0F0BD1F4B0221AD
:10525800032504461A6C60200026204F42F40032D1
:105268001A6407221B6C059003F4003306911C484E
:1052780005A9039308951B4D039B09920796FBF715
:1052880085FE4FF0006140224FF480632846EE60AF
:105298006E62AA602B61C5E90566C5E90766C5E9BE
:1052A8000071FBF7EDFC20B14FF47D710E48FFF75C
:1052B800F5FB2566AC630BB0F0BD00BF007800407D
:1052C80000100140004400400048004000380240FF
:1052D800000402400010024000000240A0600240AA
:1052E800000C024048290020805500080368B3F1EB
:1052F800A04F00D0704730B54FF4C05089B003229A
:105308000A2302250024039003A90E48CDE90623A9
:10531800CDE90454FBF73AFE0B4B5A6B42F080027E
:105328005A635A6B02F080020192019A5A6C42F455
:1053380080425A645B6C03F480430293029B09B079
:1053480030BD00BF0000024000380240704700BF77
:10535800FEE700BFFEE700BFFEE700BFFEE700BFB5
:10536800704700BF704700BF704700BF08B5FBF724
:105378000BF9BDE80840FBF7AFBB00BF0120FBF706
:1053880029BF00BF0148FBF72BBD00BF58280020EC
:105398000148FBF725BD00BF4829002008B505488E
:1053A800FBF7D0F90448FBF7CDF90448BDE80840FD
:1053B800FBF7C8B9B8280020702200200029002077
:1053C8000148FDF769BF00BF002200200148FDF732
:1053D800B5BB00BFD82700200148FDF7AFBB00BF11
:1053E8000C2C00200148FBF7FBBC00BF2C2A002036
:1053F8000148FBF7F5BC00BFAC2B00200F4A104B4F
:10540800D2F888000F4940F4700070B4C2F88800E0
:10541800002418684FF000650B4E40F0010018603A
:105428009C601868014019605E60196821F4802149
:105438001960DC60956070BC704700BF00ED00E04B
:1054480000380240FFFFF6FE10300024DFF834D0A9
:10545800002103E00C4B5B58435004310B480C4BC4
:1054680042189A42F6D30B4A02E0002342F8043B62
:10547800094B9A42F9D3FFF7C1FF00F011F8FEF784
:1054880027FF704700000820AC55000800000020E6
:1054980010000020100000208C2C0020FEE70000E7
:1054A80070B50D4E0D4CA41BA4100025A54209D1C2
:1054B8000B4E0C4C00F018F8A41BA4100025A542B4
:1054C80005D170BD56F8253098470135EEE756F8F6
:1054D800253098470135F2E7A4550008A45500087F
:1054E800A4550008A8550008F8B500BFF8BC08BCCA
:1054F8009E467047F8B500BFF8BC08BC9E4670478A
:1055080000061016000610160104020800101010FC
:105518000410101002101010080000000000000015
:105528000000000000000000000000000000000073
:105538000000000000000000000000000000000063
:10554800000000000000000000000000A94A000858
:10555800D94A0008F94A0008794B0008194B000895
:10556800000000000000000001020304060708090B
:1055780000000000010203042E2E2F5372632F73C4
:10558800746D3332663778785F68616C5F6D7370FD
:045598002E6300007E
:08559C00CCACFF7F0100000010
:0455A4001D020008DC
:0455A800F9010008FD
:1055AC000100000010000000010000000024F400C5
:040000050800545546
:00000001FF
